{
  "_format": "hh-sol-artifact-1",
  "contractName": "EntryPoint",
  "sourceName": "contracts/EntryPoint.sol",
  "abi": [
    {
      "inputs": [
        {
          "internalType": "address",
          "name": "account",
          "type": "address"
        }
      ],
      "name": "depositTo",
      "outputs": [],
      "stateMutability": "payable",
      "type": "function"
    },
    {
      "inputs": [
        {
          "internalType": "address",
          "name": "",
          "type": "address"
        }
      ],
      "name": "deposits",
      "outputs": [
        {
          "internalType": "uint256",
          "name": "",
          "type": "uint256"
        }
      ],
      "stateMutability": "view",
      "type": "function"
    },
    {
      "inputs": [
        {
          "components": [
            {
              "internalType": "address",
              "name": "sender",
              "type": "address"
            },
            {
              "internalType": "uint256",
              "name": "nonce",
              "type": "uint256"
            },
            {
              "internalType": "bytes",
              "name": "initCode",
              "type": "bytes"
            },
            {
              "internalType": "bytes",
              "name": "callData",
              "type": "bytes"
            },
            {
              "internalType": "uint256",
              "name": "callGasLimit",
              "type": "uint256"
            },
            {
              "internalType": "uint256",
              "name": "verificationGasLimit",
              "type": "uint256"
            },
            {
              "internalType": "uint256",
              "name": "preVerificationGas",
              "type": "uint256"
            },
            {
              "internalType": "uint256",
              "name": "maxFeePerGas",
              "type": "uint256"
            },
            {
              "internalType": "uint256",
              "name": "maxPriorityFeePerGas",
              "type": "uint256"
            },
            {
              "internalType": "bytes",
              "name": "paymasterAndData",
              "type": "bytes"
            },
            {
              "internalType": "bytes",
              "name": "signature",
              "type": "bytes"
            }
          ],
          "internalType": "struct UserOperation",
          "name": "userOp",
          "type": "tuple"
        }
      ],
      "name": "getUserOpHash",
      "outputs": [
        {
          "internalType": "bytes32",
          "name": "",
          "type": "bytes32"
        }
      ],
      "stateMutability": "view",
      "type": "function"
    },
    {
      "inputs": [
        {
          "components": [
            {
              "internalType": "address",
              "name": "sender",
              "type": "address"
            },
            {
              "internalType": "uint256",
              "name": "nonce",
              "type": "uint256"
            },
            {
              "internalType": "bytes",
              "name": "initCode",
              "type": "bytes"
            },
            {
              "internalType": "bytes",
              "name": "callData",
              "type": "bytes"
            },
            {
              "internalType": "uint256",
              "name": "callGasLimit",
              "type": "uint256"
            },
            {
              "internalType": "uint256",
              "name": "verificationGasLimit",
              "type": "uint256"
            },
            {
              "internalType": "uint256",
              "name": "preVerificationGas",
              "type": "uint256"
            },
            {
              "internalType": "uint256",
              "name": "maxFeePerGas",
              "type": "uint256"
            },
            {
              "internalType": "uint256",
              "name": "maxPriorityFeePerGas",
              "type": "uint256"
            },
            {
              "internalType": "bytes",
              "name": "paymasterAndData",
              "type": "bytes"
            },
            {
              "internalType": "bytes",
              "name": "signature",
              "type": "bytes"
            }
          ],
          "internalType": "struct UserOperation[]",
          "name": "ops",
          "type": "tuple[]"
        }
      ],
      "name": "handleOps",
      "outputs": [],
      "stateMutability": "nonpayable",
      "type": "function"
    },
    {
      "inputs": [
        {
          "components": [
            {
              "internalType": "address",
              "name": "sender",
              "type": "address"
            },
            {
              "internalType": "uint256",
              "name": "nonce",
              "type": "uint256"
            },
            {
              "internalType": "bytes",
              "name": "initCode",
              "type": "bytes"
            },
            {
              "internalType": "bytes",
              "name": "callData",
              "type": "bytes"
            },
            {
              "internalType": "uint256",
              "name": "callGasLimit",
              "type": "uint256"
            },
            {
              "internalType": "uint256",
              "name": "verificationGasLimit",
              "type": "uint256"
            },
            {
              "internalType": "uint256",
              "name": "preVerificationGas",
              "type": "uint256"
            },
            {
              "internalType": "uint256",
              "name": "maxFeePerGas",
              "type": "uint256"
            },
            {
              "internalType": "uint256",
              "name": "maxPriorityFeePerGas",
              "type": "uint256"
            },
            {
              "internalType": "bytes",
              "name": "paymasterAndData",
              "type": "bytes"
            },
            {
              "internalType": "bytes",
              "name": "signature",
              "type": "bytes"
            }
          ],
          "internalType": "struct UserOperation",
          "name": "userOp",
          "type": "tuple"
        }
      ],
      "name": "validateUserOp",
      "outputs": [],
      "stateMutability": "nonpayable",
      "type": "function"
    }
  ],
  "bytecode": "0x608060405234801561001057600080fd5b50611265806100206000396000f3fe60806040526004361061004a5760003560e01c8063532d3ac91461004f5780638393db0b14610078578063a6193531146100a1578063b760faf9146100de578063fc7e286d146100fa575b600080fd5b34801561005b57600080fd5b5061007660048036038101906100719190610813565b610137565b005b34801561008457600080fd5b5061009f600480360381019061009a9190610885565b61035d565b005b3480156100ad57600080fd5b506100c860048036038101906100c39190610885565b6104a5565b6040516100d591906108e7565b60405180910390f35b6100f860048036038101906100f39190610960565b6105b1565b005b34801561010657600080fd5b50610121600480360381019061011c9190610960565b61068a565b60405161012e91906109a6565b60405180910390f35b60005b828290508110156103585736838383818110610159576101586109c1565b5b905060200281019061016b91906109ff565b905060005a905060008260000160208101906101879190610960565b73ffffffffffffffffffffffffffffffffffffffff1683608001358480606001906101b29190610a28565b6040516101c0929190610aca565b60006040518083038160008787f1925050503d80600081146101fe576040519150601f19603f3d011682016040523d82523d6000602084013e610203565b606091505b5050905060005a836102159190610b12565b905060006102278560e001353a6106a2565b905060003a61ac096102399190610b46565b82846102459190610b46565b61024f9190610b88565b9050806000808860000160208101906102689190610960565b73ffffffffffffffffffffffffffffffffffffffff1673ffffffffffffffffffffffffffffffffffffffff16815260200190815260200160002060008282546102b19190610b12565b925050819055503373ffffffffffffffffffffffffffffffffffffffff166108fc829081150290604051600060405180830381858888f193505050501580156102fe573d6000803e3d6000fd5b508361033f576040517f08c379a000000000000000000000000000000000000000000000000000000000815260040161033690610c19565b60405180910390fd5b505050505050808061035090610c39565b91505061013a565b505050565b8060e0013581608001356103719190610b46565b6000808360000160208101906103879190610960565b73ffffffffffffffffffffffffffffffffffffffff1673ffffffffffffffffffffffffffffffffffffffff168152602001908152602001600020541015610403576040517f08c379a00000000000000000000000000000000000000000000000000000000081526004016103fa90610cf3565b60405180910390fd5b600061040e826104a5565b90508160000160208101906104239190610960565b73ffffffffffffffffffffffffffffffffffffffff1663fff35b7283836040518363ffffffff1660e01b815260040161045d929190610fb0565b6020604051808303816000875af115801561047c573d6000803e3d6000fd5b505050506040513d601f19601f820116820180604052508101906104a09190610ff5565b505050565b6000808260000160208101906104bb9190610960565b83602001358480604001906104d09190610a28565b6040516104de929190610aca565b60405180910390208580606001906104f69190610a28565b604051610504929190610aca565b604051809103902086608001358760a001358860c001358960e001358a61010001358b8061012001906105379190610a28565b604051610545929190610aca565b60405180910390206040516020016105669a99989796959493929190611031565b604051602081830303815290604052805190602001209050803046604051602001610593939291906110cd565b60405160208183030381529060405280519060200120915050919050565b6105ef6040518060400160405280601881526020017f456e747279506f696e742072656365697665206d6f6e657900000000000000008152506106bb565b60003411610632576040517f08c379a000000000000000000000000000000000000000000000000000000000815260040161062990611150565b60405180910390fd5b346000808373ffffffffffffffffffffffffffffffffffffffff1673ffffffffffffffffffffffffffffffffffffffff16815260200190815260200160002060008282546106809190610b88565b9250508190555050565b60006020528060005260406000206000915090505481565b60008183106106b157816106b3565b825b905092915050565b610751816040516024016106cf91906111de565b6040516020818303038152906040527f41304fac000000000000000000000000000000000000000000000000000000007bffffffffffffffffffffffffffffffffffffffffffffffffffffffff19166020820180517bffffffffffffffffffffffffffffffffffffffffffffffffffffffff8381831617835250505050610754565b50565b61076b8161076361076e61078f565b63ffffffff16565b50565b60006a636f6e736f6c652e6c6f679050600080835160208501845afa505050565b61079a819050919050565b6107a2611200565b565b600080fd5b600080fd5b600080fd5b600080fd5b600080fd5b60008083601f8401126107d3576107d26107ae565b5b8235905067ffffffffffffffff8111156107f0576107ef6107b3565b5b60208301915083602082028301111561080c5761080b6107b8565b5b9250929050565b6000806020838503121561082a576108296107a4565b5b600083013567ffffffffffffffff811115610848576108476107a9565b5b610854858286016107bd565b92509250509250929050565b600080fd5b6000610160828403121561087c5761087b610860565b5b81905092915050565b60006020828403121561089b5761089a6107a4565b5b600082013567ffffffffffffffff8111156108b9576108b86107a9565b5b6108c584828501610865565b91505092915050565b6000819050919050565b6108e1816108ce565b82525050565b60006020820190506108fc60008301846108d8565b92915050565b600073ffffffffffffffffffffffffffffffffffffffff82169050919050565b600061092d82610902565b9050919050565b61093d81610922565b811461094857600080fd5b50565b60008135905061095a81610934565b92915050565b600060208284031215610976576109756107a4565b5b60006109848482850161094b565b91505092915050565b6000819050919050565b6109a08161098d565b82525050565b60006020820190506109bb6000830184610997565b92915050565b7f4e487b7100000000000000000000000000000000000000000000000000000000600052603260045260246000fd5b600080fd5b600080fd5b600080fd5b60008235600161016003833603038112610a1c57610a1b6109f0565b5b80830191505092915050565b60008083356001602003843603038112610a4557610a446109f0565b5b80840192508235915067ffffffffffffffff821115610a6757610a666109f5565b5b602083019250600182023603831315610a8357610a826109fa565b5b509250929050565b600081905092915050565b82818337600083830152505050565b6000610ab18385610a8b565b9350610abe838584610a96565b82840190509392505050565b6000610ad7828486610aa5565b91508190509392505050565b7f4e487b7100000000000000000000000000000000000000000000000000000000600052601160045260246000fd5b6000610b1d8261098d565b9150610b288361098d565b9250828203905081811115610b4057610b3f610ae3565b5b92915050565b6000610b518261098d565b9150610b5c8361098d565b9250828202610b6a8161098d565b91508282048414831517610b8157610b80610ae3565b5b5092915050565b6000610b938261098d565b9150610b9e8361098d565b9250828201905080821115610bb657610bb5610ae3565b5b92915050565b600082825260208201905092915050565b7f5343412063616c6c206661696c65640000000000000000000000000000000000600082015250565b6000610c03600f83610bbc565b9150610c0e82610bcd565b602082019050919050565b60006020820190508181036000830152610c3281610bf6565b9050919050565b6000610c448261098d565b91507fffffffffffffffffffffffffffffffffffffffffffffffffffffffffffffffff8203610c7657610c75610ae3565b5b600182019050919050565b7f4e6f7420656e6f756768206d6f6e657920696e20534341206465706f7369742060008201527f746f2070617920666f7220676173000000000000000000000000000000000000602082015250565b6000610cdd602e83610bbc565b9150610ce882610c81565b604082019050919050565b60006020820190508181036000830152610d0c81610cd0565b9050919050565b6000610d22602084018461094b565b905092915050565b610d3381610922565b82525050565b610d428161098d565b8114610d4d57600080fd5b50565b600081359050610d5f81610d39565b92915050565b6000610d746020840184610d50565b905092915050565b610d858161098d565b82525050565b600080fd5b600080fd5b600080fd5b60008083356001602003843603038112610db757610db6610d95565b5b83810192508235915060208301925067ffffffffffffffff821115610ddf57610dde610d8b565b5b600182023603831315610df557610df4610d90565b5b509250929050565b600082825260208201905092915050565b6000601f19601f8301169050919050565b6000610e2b8385610dfd565b9350610e38838584610a96565b610e4183610e0e565b840190509392505050565b60006101608301610e606000840184610d13565b610e6d6000860182610d2a565b50610e7b6020840184610d65565b610e886020860182610d7c565b50610e966040840184610d9a565b8583036040870152610ea9838284610e1f565b92505050610eba6060840184610d9a565b8583036060870152610ecd838284610e1f565b92505050610ede6080840184610d65565b610eeb6080860182610d7c565b50610ef960a0840184610d65565b610f0660a0860182610d7c565b50610f1460c0840184610d65565b610f2160c0860182610d7c565b50610f2f60e0840184610d65565b610f3c60e0860182610d7c565b50610f4b610100840184610d65565b610f59610100860182610d7c565b50610f68610120840184610d9a565b858303610120870152610f7c838284610e1f565b92505050610f8e610140840184610d9a565b858303610140870152610fa2838284610e1f565b925050508091505092915050565b60006040820190508181036000830152610fca8185610e4c565b9050610fd960208301846108d8565b9392505050565b600081519050610fef81610d39565b92915050565b60006020828403121561100b5761100a6107a4565b5b600061101984828501610fe0565b91505092915050565b61102b81610922565b82525050565b600061014082019050611047600083018d611022565b611054602083018c610997565b611061604083018b6108d8565b61106e606083018a6108d8565b61107b6080830189610997565b61108860a0830188610997565b61109560c0830187610997565b6110a260e0830186610997565b6110b0610100830185610997565b6110be6101208301846108d8565b9b9a5050505050505050505050565b60006060820190506110e260008301866108d8565b6110ef6020830185611022565b6110fc6040830184610997565b949350505050565b7f4d7573742073656e642045544820746f206465706f7369740000000000000000600082015250565b600061113a601883610bbc565b915061114582611104565b602082019050919050565b600060208201905081810360008301526111698161112d565b9050919050565b600081519050919050565b60005b8381101561119957808201518184015260208101905061117e565b60008484015250505050565b60006111b082611170565b6111ba8185610bbc565b93506111ca81856020860161117b565b6111d381610e0e565b840191505092915050565b600060208201905081810360008301526111f881846111a5565b905092915050565b7f4e487b7100000000000000000000000000000000000000000000000000000000600052605160045260246000fdfea2646970667358221220f7f27e131b3d8cb82b5272d0e62264215eafdf30880d9ed46113935b12180d8464736f6c63430008140033",
  "linkReferences": {},
  "deployedLinkReferences": {}
}