{
  "_format": "hh-sol-artifact-1",
  "contractName": "CryptoPayments",
  "sourceName": "contracts/CryptoPayments.sol",
  "abi": [
    {
      "inputs": [
        {
          "internalType": "address[]",
          "name": "walletAddresses",
          "type": "address[]"
        },
        {
          "internalType": "string[]",
          "name": "roles",
          "type": "string[]"
        }
      ],
      "stateMutability": "nonpayable",
      "type": "constructor"
    },
    {
      "inputs": [
        {
          "internalType": "address",
          "name": "user",
          "type": "address"
        }
      ],
      "name": "checkUserAccess",
      "outputs": [
        {
          "internalType": "string",
          "name": "",
          "type": "string"
        }
      ],
      "stateMutability": "view",
      "type": "function"
    },
    {
      "inputs": [
        {
          "internalType": "address",
          "name": "wallet",
          "type": "address"
        },
        {
          "internalType": "string",
          "name": "role",
          "type": "string"
        }
      ],
      "name": "giveAccessToEmployee",
      "outputs": [
        {
          "internalType": "bool",
          "name": "",
          "type": "bool"
        }
      ],
      "stateMutability": "nonpayable",
      "type": "function"
    }
  ],
  "bytecode": "0x60806040523480156200001157600080fd5b50604051620012ff380380620012ff8339818101604052810190620000379190620004fc565b80518251146200007e576040517f08c379a00000000000000000000000000000000000000000000000000000000081526004016200007590620005e2565b60405180910390fd5b60005b82518110156200012957818181518110620000a157620000a062000604565b5b6020026020010151600080858481518110620000c257620000c162000604565b5b602002602001015173ffffffffffffffffffffffffffffffffffffffff1673ffffffffffffffffffffffffffffffffffffffff16815260200190815260200160002090816200011291906200087e565b508080620001209062000994565b91505062000081565b505050620009e1565b6000604051905090565b600080fd5b600080fd5b600080fd5b6000601f19601f8301169050919050565b7f4e487b7100000000000000000000000000000000000000000000000000000000600052604160045260246000fd5b62000196826200014b565b810181811067ffffffffffffffff82111715620001b857620001b76200015c565b5b80604052505050565b6000620001cd62000132565b9050620001db82826200018b565b919050565b600067ffffffffffffffff821115620001fe57620001fd6200015c565b5b602082029050602081019050919050565b600080fd5b600073ffffffffffffffffffffffffffffffffffffffff82169050919050565b6000620002418262000214565b9050919050565b620002538162000234565b81146200025f57600080fd5b50565b600081519050620002738162000248565b92915050565b6000620002906200028a84620001e0565b620001c1565b90508083825260208201905060208402830185811115620002b657620002b56200020f565b5b835b81811015620002e35780620002ce888262000262565b845260208401935050602081019050620002b8565b5050509392505050565b600082601f83011262000305576200030462000146565b5b81516200031784826020860162000279565b91505092915050565b600067ffffffffffffffff8211156200033e576200033d6200015c565b5b602082029050602081019050919050565b600080fd5b600067ffffffffffffffff8211156200037257620003716200015c565b5b6200037d826200014b565b9050602081019050919050565b60005b83811015620003aa5780820151818401526020810190506200038d565b60008484015250505050565b6000620003cd620003c78462000354565b620001c1565b905082815260208101848484011115620003ec57620003eb6200034f565b5b620003f98482856200038a565b509392505050565b600082601f83011262000419576200041862000146565b5b81516200042b848260208601620003b6565b91505092915050565b60006200044b620004458462000320565b620001c1565b905080838252602082019050602084028301858111156200047157620004706200020f565b5b835b81811015620004bf57805167ffffffffffffffff8111156200049a576200049962000146565b5b808601620004a9898262000401565b8552602085019450505060208101905062000473565b5050509392505050565b600082601f830112620004e157620004e062000146565b5b8151620004f384826020860162000434565b91505092915050565b600080604083850312156200051657620005156200013c565b5b600083015167ffffffffffffffff81111562000537576200053662000141565b5b6200054585828601620002ed565b925050602083015167ffffffffffffffff81111562000569576200056862000141565b5b6200057785828601620004c9565b9150509250929050565b600082825260208201905092915050565b7f417272617973206d757374206265207468652073616d65206c656e6774680000600082015250565b6000620005ca601e8362000581565b9150620005d78262000592565b602082019050919050565b60006020820190508181036000830152620005fd81620005bb565b9050919050565b7f4e487b7100000000000000000000000000000000000000000000000000000000600052603260045260246000fd5b600081519050919050565b7f4e487b7100000000000000000000000000000000000000000000000000000000600052602260045260246000fd5b600060028204905060018216806200068657607f821691505b6020821081036200069c576200069b6200063e565b5b50919050565b60008190508160005260206000209050919050565b60006020601f8301049050919050565b600082821b905092915050565b600060088302620007067fffffffffffffffffffffffffffffffffffffffffffffffffffffffffffffffff82620006c7565b620007128683620006c7565b95508019841693508086168417925050509392505050565b6000819050919050565b6000819050919050565b60006200075f6200075962000753846200072a565b62000734565b6200072a565b9050919050565b6000819050919050565b6200077b836200073e565b620007936200078a8262000766565b848454620006d4565b825550505050565b600090565b620007aa6200079b565b620007b781848462000770565b505050565b5b81811015620007df57620007d3600082620007a0565b600181019050620007bd565b5050565b601f8211156200082e57620007f881620006a2565b6200080384620006b7565b8101602085101562000813578190505b6200082b6200082285620006b7565b830182620007bc565b50505b505050565b600082821c905092915050565b6000620008536000198460080262000833565b1980831691505092915050565b60006200086e838362000840565b9150826002028217905092915050565b620008898262000633565b67ffffffffffffffff811115620008a557620008a46200015c565b5b620008b182546200066d565b620008be828285620007e3565b600060209050601f831160018114620008f65760008415620008e1578287015190505b620008ed858262000860565b8655506200095d565b601f1984166200090686620006a2565b60005b82811015620009305784890151825560018201915060208501945060208101905062000909565b868310156200095057848901516200094c601f89168262000840565b8355505b6001600288020188555050505b505050505050565b7f4e487b7100000000000000000000000000000000000000000000000000000000600052601160045260246000fd5b6000620009a1826200072a565b91507fffffffffffffffffffffffffffffffffffffffffffffffffffffffffffffffff8203620009d657620009d562000965565b5b600182019050919050565b61090e80620009f16000396000f3fe608060405234801561001057600080fd5b50600436106100365760003560e01c8063199aa7341461003b578063ce0886dc1461006b575b600080fd5b61005560048036038101906100509190610490565b61009b565b6040516100629190610507565b60405180910390f35b61008560048036038101906100809190610522565b6100f3565b60405161009291906105ce565b60405180910390f35b6000816000808573ffffffffffffffffffffffffffffffffffffffff1673ffffffffffffffffffffffffffffffffffffffff16815260200190815260200160002090816100e89190610806565b506001905092915050565b606060008060008473ffffffffffffffffffffffffffffffffffffffff1673ffffffffffffffffffffffffffffffffffffffff16815260200190815260200160002080546101409061061f565b80601f016020809104026020016040519081016040528092919081815260200182805461016c9061061f565b80156101b95780601f1061018e576101008083540402835291602001916101b9565b820191906000526020600020905b81548152906001019060200180831161019c57829003601f168201915b50505050509050600081511115610299576000808473ffffffffffffffffffffffffffffffffffffffff1673ffffffffffffffffffffffffffffffffffffffff16815260200190815260200160002080546102139061061f565b80601f016020809104026020016040519081016040528092919081815260200182805461023f9061061f565b801561028c5780601f106102615761010080835404028352916020019161028c565b820191906000526020600020905b81548152906001019060200180831161026f57829003601f168201915b50505050509150506102d3565b6040518060400160405280600981526020017f666f7262696464656e00000000000000000000000000000000000000000000008152509150505b919050565b6000604051905090565b600080fd5b600080fd5b600073ffffffffffffffffffffffffffffffffffffffff82169050919050565b6000610317826102ec565b9050919050565b6103278161030c565b811461033257600080fd5b50565b6000813590506103448161031e565b92915050565b600080fd5b600080fd5b6000601f19601f8301169050919050565b7f4e487b7100000000000000000000000000000000000000000000000000000000600052604160045260246000fd5b61039d82610354565b810181811067ffffffffffffffff821117156103bc576103bb610365565b5b80604052505050565b60006103cf6102d8565b90506103db8282610394565b919050565b600067ffffffffffffffff8211156103fb576103fa610365565b5b61040482610354565b9050602081019050919050565b82818337600083830152505050565b600061043361042e846103e0565b6103c5565b90508281526020810184848401111561044f5761044e61034f565b5b61045a848285610411565b509392505050565b600082601f8301126104775761047661034a565b5b8135610487848260208601610420565b91505092915050565b600080604083850312156104a7576104a66102e2565b5b60006104b585828601610335565b925050602083013567ffffffffffffffff8111156104d6576104d56102e7565b5b6104e285828601610462565b9150509250929050565b60008115159050919050565b610501816104ec565b82525050565b600060208201905061051c60008301846104f8565b92915050565b600060208284031215610538576105376102e2565b5b600061054684828501610335565b91505092915050565b600081519050919050565b600082825260208201905092915050565b60005b8381101561058957808201518184015260208101905061056e565b60008484015250505050565b60006105a08261054f565b6105aa818561055a565b93506105ba81856020860161056b565b6105c381610354565b840191505092915050565b600060208201905081810360008301526105e88184610595565b905092915050565b7f4e487b7100000000000000000000000000000000000000000000000000000000600052602260045260246000fd5b6000600282049050600182168061063757607f821691505b60208210810361064a576106496105f0565b5b50919050565b60008190508160005260206000209050919050565b60006020601f8301049050919050565b600082821b905092915050565b6000600883026106b27fffffffffffffffffffffffffffffffffffffffffffffffffffffffffffffffff82610675565b6106bc8683610675565b95508019841693508086168417925050509392505050565b6000819050919050565b6000819050919050565b60006107036106fe6106f9846106d4565b6106de565b6106d4565b9050919050565b6000819050919050565b61071d836106e8565b6107316107298261070a565b848454610682565b825550505050565b600090565b610746610739565b610751818484610714565b505050565b5b818110156107755761076a60008261073e565b600181019050610757565b5050565b601f8211156107ba5761078b81610650565b61079484610665565b810160208510156107a3578190505b6107b76107af85610665565b830182610756565b50505b505050565b600082821c905092915050565b60006107dd600019846008026107bf565b1980831691505092915050565b60006107f683836107cc565b9150826002028217905092915050565b61080f8261054f565b67ffffffffffffffff81111561082857610827610365565b5b610832825461061f565b61083d828285610779565b600060209050601f831160018114610870576000841561085e578287015190505b61086885826107ea565b8655506108d0565b601f19841661087e86610650565b60005b828110156108a657848901518255600182019150602085019450602081019050610881565b868310156108c357848901516108bf601f8916826107cc565b8355505b6001600288020188555050505b50505050505056fea264697066735822122054bd350b0d492b665a715e4c74719603ad12711645f636d780a5b9a075fc390864736f6c63430008140033",
  "linkReferences": {},
  "deployedLinkReferences": {}
}