{
  "_format": "hh-sol-artifact-1",
  "contractName": "CryptoPayments",
  "sourceName": "contracts/CryptoPayments.sol",
  "abi": [
    {
      "inputs": [
        {
          "internalType": "address[]",
          "name": "walletAddresses",
          "type": "address[]"
        },
        {
          "internalType": "string[]",
          "name": "roles",
          "type": "string[]"
        },
        {
          "internalType": "address",
          "name": "_entryPoint",
          "type": "address"
        }
      ],
      "stateMutability": "nonpayable",
      "type": "constructor"
    },
    {
      "inputs": [
        {
          "internalType": "address",
          "name": "user",
          "type": "address"
        }
      ],
      "name": "checkUserAccess",
      "outputs": [
        {
          "internalType": "string",
          "name": "",
          "type": "string"
        }
      ],
      "stateMutability": "view",
      "type": "function"
    },
    {
      "inputs": [],
      "name": "entryPoint",
      "outputs": [
        {
          "internalType": "contract IEntryPoint",
          "name": "",
          "type": "address"
        }
      ],
      "stateMutability": "view",
      "type": "function"
    },
    {
      "inputs": [],
      "name": "feePercent",
      "outputs": [
        {
          "internalType": "uint256",
          "name": "",
          "type": "uint256"
        }
      ],
      "stateMutability": "view",
      "type": "function"
    },
    {
      "inputs": [
        {
          "internalType": "address",
          "name": "wallet",
          "type": "address"
        },
        {
          "internalType": "string",
          "name": "role",
          "type": "string"
        }
      ],
      "name": "giveAccessToEmployee",
      "outputs": [
        {
          "internalType": "bool",
          "name": "",
          "type": "bool"
        }
      ],
      "stateMutability": "nonpayable",
      "type": "function"
    },
    {
      "inputs": [
        {
          "internalType": "address[]",
          "name": "addresses",
          "type": "address[]"
        },
        {
          "internalType": "uint256[]",
          "name": "salaries",
          "type": "uint256[]"
        }
      ],
      "name": "paySalary",
      "outputs": [],
      "stateMutability": "nonpayable",
      "type": "function"
    },
    {
      "inputs": [
        {
          "components": [
            {
              "internalType": "address",
              "name": "sender",
              "type": "address"
            },
            {
              "internalType": "uint256",
              "name": "nonce",
              "type": "uint256"
            },
            {
              "internalType": "bytes",
              "name": "initCode",
              "type": "bytes"
            },
            {
              "internalType": "bytes",
              "name": "callData",
              "type": "bytes"
            },
            {
              "internalType": "uint256",
              "name": "callGasLimit",
              "type": "uint256"
            },
            {
              "internalType": "uint256",
              "name": "verificationGasLimit",
              "type": "uint256"
            },
            {
              "internalType": "uint256",
              "name": "preVerificationGas",
              "type": "uint256"
            },
            {
              "internalType": "uint256",
              "name": "maxFeePerGas",
              "type": "uint256"
            },
            {
              "internalType": "uint256",
              "name": "maxPriorityFeePerGas",
              "type": "uint256"
            },
            {
              "internalType": "bytes",
              "name": "paymasterAndData",
              "type": "bytes"
            },
            {
              "internalType": "bytes",
              "name": "signature",
              "type": "bytes"
            }
          ],
          "internalType": "struct UserOperation",
          "name": "userOp",
          "type": "tuple"
        },
        {
          "internalType": "bytes32",
          "name": "userOpHash",
          "type": "bytes32"
        }
      ],
      "name": "validateUserOp",
      "outputs": [
        {
          "internalType": "uint256",
          "name": "",
          "type": "uint256"
        }
      ],
      "stateMutability": "view",
      "type": "function"
    },
    {
      "stateMutability": "payable",
      "type": "receive"
    }
  ],
  "bytecode": "0x608060405260056002553480156200001657600080fd5b506040516200271a3803806200271a83398181016040528101906200003c919062000543565b815183511462000083576040517f08c379a00000000000000000000000000000000000000000000000000000000081526004016200007a906200063e565b60405180910390fd5b60005b83518110156200012e57828181518110620000a657620000a562000660565b5b6020026020010151600080868481518110620000c757620000c662000660565b5b602002602001015173ffffffffffffffffffffffffffffffffffffffff1673ffffffffffffffffffffffffffffffffffffffff1681526020019081526020016000209081620001179190620008da565b5080806200012590620009f0565b91505062000086565b5080600160006101000a81548173ffffffffffffffffffffffffffffffffffffffff021916908373ffffffffffffffffffffffffffffffffffffffff16021790555050505062000a3d565b6000604051905090565b600080fd5b600080fd5b600080fd5b6000601f19601f8301169050919050565b7f4e487b7100000000000000000000000000000000000000000000000000000000600052604160045260246000fd5b620001dd8262000192565b810181811067ffffffffffffffff82111715620001ff57620001fe620001a3565b5b80604052505050565b60006200021462000179565b9050620002228282620001d2565b919050565b600067ffffffffffffffff821115620002455762000244620001a3565b5b602082029050602081019050919050565b600080fd5b600073ffffffffffffffffffffffffffffffffffffffff82169050919050565b600062000288826200025b565b9050919050565b6200029a816200027b565b8114620002a657600080fd5b50565b600081519050620002ba816200028f565b92915050565b6000620002d7620002d18462000227565b62000208565b90508083825260208201905060208402830185811115620002fd57620002fc62000256565b5b835b818110156200032a5780620003158882620002a9565b845260208401935050602081019050620002ff565b5050509392505050565b600082601f8301126200034c576200034b6200018d565b5b81516200035e848260208601620002c0565b91505092915050565b600067ffffffffffffffff821115620003855762000384620001a3565b5b602082029050602081019050919050565b600080fd5b600067ffffffffffffffff821115620003b957620003b8620001a3565b5b620003c48262000192565b9050602081019050919050565b60005b83811015620003f1578082015181840152602081019050620003d4565b60008484015250505050565b6000620004146200040e846200039b565b62000208565b90508281526020810184848401111562000433576200043262000396565b5b62000440848285620003d1565b509392505050565b600082601f83011262000460576200045f6200018d565b5b815162000472848260208601620003fd565b91505092915050565b6000620004926200048c8462000367565b62000208565b90508083825260208201905060208402830185811115620004b857620004b762000256565b5b835b818110156200050657805167ffffffffffffffff811115620004e157620004e06200018d565b5b808601620004f0898262000448565b85526020850194505050602081019050620004ba565b5050509392505050565b600082601f8301126200052857620005276200018d565b5b81516200053a8482602086016200047b565b91505092915050565b6000806000606084860312156200055f576200055e62000183565b5b600084015167ffffffffffffffff81111562000580576200057f62000188565b5b6200058e8682870162000334565b935050602084015167ffffffffffffffff811115620005b257620005b162000188565b5b620005c08682870162000510565b9250506040620005d386828701620002a9565b9150509250925092565b600082825260208201905092915050565b7f417272617973206d757374206265207468652073616d65206c656e6774680000600082015250565b600062000626601e83620005dd565b91506200063382620005ee565b602082019050919050565b60006020820190508181036000830152620006598162000617565b9050919050565b7f4e487b7100000000000000000000000000000000000000000000000000000000600052603260045260246000fd5b600081519050919050565b7f4e487b7100000000000000000000000000000000000000000000000000000000600052602260045260246000fd5b60006002820490506001821680620006e257607f821691505b602082108103620006f857620006f76200069a565b5b50919050565b60008190508160005260206000209050919050565b60006020601f8301049050919050565b600082821b905092915050565b600060088302620007627fffffffffffffffffffffffffffffffffffffffffffffffffffffffffffffffff8262000723565b6200076e868362000723565b95508019841693508086168417925050509392505050565b6000819050919050565b6000819050919050565b6000620007bb620007b5620007af8462000786565b62000790565b62000786565b9050919050565b6000819050919050565b620007d7836200079a565b620007ef620007e682620007c2565b84845462000730565b825550505050565b600090565b62000806620007f7565b62000813818484620007cc565b505050565b5b818110156200083b576200082f600082620007fc565b60018101905062000819565b5050565b601f8211156200088a576200085481620006fe565b6200085f8462000713565b810160208510156200086f578190505b620008876200087e8562000713565b83018262000818565b50505b505050565b600082821c905092915050565b6000620008af600019846008026200088f565b1980831691505092915050565b6000620008ca83836200089c565b9150826002028217905092915050565b620008e5826200068f565b67ffffffffffffffff811115620009015762000900620001a3565b5b6200090d8254620006c9565b6200091a8282856200083f565b600060209050601f8311600181146200095257600084156200093d578287015190505b620009498582620008bc565b865550620009b9565b601f1984166200096286620006fe565b60005b828110156200098c5784890151825560018201915060208501945060208101905062000965565b86831015620009ac5784890151620009a8601f8916826200089c565b8355505b6001600288020188555050505b505050505050565b7f4e487b7100000000000000000000000000000000000000000000000000000000600052601160045260246000fd5b6000620009fd8262000786565b91507fffffffffffffffffffffffffffffffffffffffffffffffffffffffffffffffff820362000a325762000a31620009c1565b5b600182019050919050565b611ccd8062000a4d6000396000f3fe6080604052600436106100595760003560e01c8063199aa734146101975780637fd6f15c146101d45780638631128d146101ff578063b0d691fe14610228578063ce0886dc14610253578063fff35b721461029057610192565b366101925761009c6040518060400160405280601181526020017f5343412072656365697665206d6f6e65790000000000000000000000000000008152506102cd565b60006064600254346100ae9190610dc4565b6100b89190610e35565b9050600081111561019057600160009054906101000a900473ffffffffffffffffffffffffffffffffffffffff1673ffffffffffffffffffffffffffffffffffffffff1663b760faf982306040518363ffffffff1660e01b815260040161011f9190610ea7565b6000604051808303818588803b15801561013857600080fd5b505af115801561014c573d6000803e3d6000fd5b505050505061018f6040518060400160405280602081526020017f546865206d6f6e6579207761732073656e7420746f20456e747279506f696e748152506102cd565b5b005b600080fd5b3480156101a357600080fd5b506101be60048036038101906101b99190611048565b610366565b6040516101cb91906110bf565b60405180910390f35b3480156101e057600080fd5b506101e96103be565b6040516101f691906110e9565b60405180910390f35b34801561020b57600080fd5b50610226600480360381019061022191906111ba565b6103c4565b005b34801561023457600080fd5b5061023d610578565b60405161024a919061129a565b60405180910390f35b34801561025f57600080fd5b5061027a600480360381019061027591906112b5565b61059e565b6040516102879190611361565b60405180910390f35b34801561029c57600080fd5b506102b760048036038101906102b291906113de565b610783565b6040516102c491906110e9565b60405180910390f35b610363816040516024016102e19190611361565b6040516020818303038152906040527f41304fac000000000000000000000000000000000000000000000000000000007bffffffffffffffffffffffffffffffffffffffffffffffffffffffff19166020820180517bffffffffffffffffffffffffffffffffffffffffffffffffffffffff8381831617835250505050610c09565b50565b6000816000808573ffffffffffffffffffffffffffffffffffffffff1673ffffffffffffffffffffffffffffffffffffffff16815260200190815260200160002090816103b3919061163c565b506001905092915050565b60025481565b6104026040518060400160405280600e81526020017f48656c6c6f2066726f6d205343410000000000000000000000000000000000008152506102cd565b60005b84849050811015610571576104408585838181106104265761042561170e565b5b905060200201602081019061043b91906112b5565b610c23565b6104628383838181106104565761045561170e565b5b90506020020135610cbc565b60008585838181106104775761047661170e565b5b905060200201602081019061048c91906112b5565b905060008484848181106104a3576104a261170e565b5b905060200201359050804710156104ef576040517f08c379a00000000000000000000000000000000000000000000000000000000081526004016104e690611789565b60405180910390fd5b60008273ffffffffffffffffffffffffffffffffffffffff1682604051610515906117da565b60006040518083038185875af1925050503d8060008114610552576040519150601f19603f3d011682016040523d82523d6000602084013e610557565b606091505b505090505050508080610569906117ef565b915050610405565b5050505050565b600160009054906101000a900473ffffffffffffffffffffffffffffffffffffffff1681565b606060008060008473ffffffffffffffffffffffffffffffffffffffff1673ffffffffffffffffffffffffffffffffffffffff16815260200190815260200160002080546105eb90611469565b80601f016020809104026020016040519081016040528092919081815260200182805461061790611469565b80156106645780601f1061063957610100808354040283529160200191610664565b820191906000526020600020905b81548152906001019060200180831161064757829003601f168201915b50505050509050600081511115610744576000808473ffffffffffffffffffffffffffffffffffffffff1673ffffffffffffffffffffffffffffffffffffffff16815260200190815260200160002080546106be90611469565b80601f01602080910402602001604051908101604052809291908181526020018280546106ea90611469565b80156107375780601f1061070c57610100808354040283529160200191610737565b820191906000526020600020905b81548152906001019060200180831161071a57829003601f168201915b505050505091505061077e565b6040518060400160405280600981526020017f666f7262696464656e00000000000000000000000000000000000000000000008152509150505b919050565b600080838061014001906107979190611846565b8080601f016020809104026020016040519081016040528093929190818152602001838380828437600081840152601f19601f8201169050808301925050505050505090506000604182516107ec9190610e35565b905060008111610831576040517f08c379a0000000000000000000000000000000000000000000000000000000008152600401610828906118f5565b60405180910390fd5b600084604051602001610844919061198d565b60405160208183030381529060405280519060200120905060005b82811015610bfb5760008060006041840260200187015192506041840260400187015191506041840260600187015160001a90506000600186838686604051600081526020016040526040516108b894939291906119de565b6020604051602081039080840390855afa1580156108da573d6000803e3d6000fd5b5050506020604051035190506109246040518060400160405280601181526020017f7265636f7665726564416464726573733a0000000000000000000000000000008152506102cd565b61092d81610c23565b60008060008373ffffffffffffffffffffffffffffffffffffffff1673ffffffffffffffffffffffffffffffffffffffff168152602001908152602001600020805461097890611469565b80601f01602080910402602001604051908101604052809291908181526020018280546109a490611469565b80156109f15780601f106109c6576101008083540402835291602001916109f1565b820191906000526020600020905b8154815290600101906020018083116109d457829003601f168201915b505050505090506000815111610a3c576040517f08c379a0000000000000000000000000000000000000000000000000000000008152600401610a3390611a95565b60405180910390fd5b60008c8060600190610a4e9190611846565b600090600492610a6093929190611abf565b90610a6b9190611b31565b90507f199aa7345b055d5bef53c0602573b943435dd2c51d355e1f4928333fead7bcde7bffffffffffffffffffffffffffffffffffffffffffffffffffffffff1916817bffffffffffffffffffffffffffffffffffffffffffffffffffffffff191603610b5c576040518060400160405280600581526020017f61646d696e00000000000000000000000000000000000000000000000000000081525080519060200120828051906020012014610b57576040517f08c379a0000000000000000000000000000000000000000000000000000000008152600401610b4e90611bdc565b60405180910390fd5b610be2565b6040518060400160405280600a81526020017f6163636f756e74616e740000000000000000000000000000000000000000000081525080519060200120828051906020012014610be1576040517f08c379a0000000000000000000000000000000000000000000000000000000008152600401610bd890611c48565b60405180910390fd5b5b5050505050508080610bf3906117ef565b91505061085f565b506000935050505092915050565b610c2081610c18610d55610d76565b63ffffffff16565b50565b610cb981604051602401610c379190610ea7565b6040516020818303038152906040527f2c2ecbc2000000000000000000000000000000000000000000000000000000007bffffffffffffffffffffffffffffffffffffffffffffffffffffffff19166020820180517bffffffffffffffffffffffffffffffffffffffffffffffffffffffff8381831617835250505050610c09565b50565b610d5281604051602401610cd091906110e9565b6040516020818303038152906040527ff82c50f1000000000000000000000000000000000000000000000000000000007bffffffffffffffffffffffffffffffffffffffffffffffffffffffff19166020820180517bffffffffffffffffffffffffffffffffffffffffffffffffffffffff8381831617835250505050610c09565b50565b60006a636f6e736f6c652e6c6f679050600080835160208501845afa505050565b610d81819050919050565b610d89611c68565b565b6000819050919050565b7f4e487b7100000000000000000000000000000000000000000000000000000000600052601160045260246000fd5b6000610dcf82610d8b565b9150610dda83610d8b565b9250828202610de881610d8b565b91508282048414831517610dff57610dfe610d95565b5b5092915050565b7f4e487b7100000000000000000000000000000000000000000000000000000000600052601260045260246000fd5b6000610e4082610d8b565b9150610e4b83610d8b565b925082610e5b57610e5a610e06565b5b828204905092915050565b600073ffffffffffffffffffffffffffffffffffffffff82169050919050565b6000610e9182610e66565b9050919050565b610ea181610e86565b82525050565b6000602082019050610ebc6000830184610e98565b92915050565b6000604051905090565b600080fd5b600080fd5b610edf81610e86565b8114610eea57600080fd5b50565b600081359050610efc81610ed6565b92915050565b600080fd5b600080fd5b6000601f19601f8301169050919050565b7f4e487b7100000000000000000000000000000000000000000000000000000000600052604160045260246000fd5b610f5582610f0c565b810181811067ffffffffffffffff82111715610f7457610f73610f1d565b5b80604052505050565b6000610f87610ec2565b9050610f938282610f4c565b919050565b600067ffffffffffffffff821115610fb357610fb2610f1d565b5b610fbc82610f0c565b9050602081019050919050565b82818337600083830152505050565b6000610feb610fe684610f98565b610f7d565b90508281526020810184848401111561100757611006610f07565b5b611012848285610fc9565b509392505050565b600082601f83011261102f5761102e610f02565b5b813561103f848260208601610fd8565b91505092915050565b6000806040838503121561105f5761105e610ecc565b5b600061106d85828601610eed565b925050602083013567ffffffffffffffff81111561108e5761108d610ed1565b5b61109a8582860161101a565b9150509250929050565b60008115159050919050565b6110b9816110a4565b82525050565b60006020820190506110d460008301846110b0565b92915050565b6110e381610d8b565b82525050565b60006020820190506110fe60008301846110da565b92915050565b600080fd5b600080fd5b60008083601f84011261112457611123610f02565b5b8235905067ffffffffffffffff81111561114157611140611104565b5b60208301915083602082028301111561115d5761115c611109565b5b9250929050565b60008083601f84011261117a57611179610f02565b5b8235905067ffffffffffffffff81111561119757611196611104565b5b6020830191508360208202830111156111b3576111b2611109565b5b9250929050565b600080600080604085870312156111d4576111d3610ecc565b5b600085013567ffffffffffffffff8111156111f2576111f1610ed1565b5b6111fe8782880161110e565b9450945050602085013567ffffffffffffffff81111561122157611220610ed1565b5b61122d87828801611164565b925092505092959194509250565b6000819050919050565b600061126061125b61125684610e66565b61123b565b610e66565b9050919050565b600061127282611245565b9050919050565b600061128482611267565b9050919050565b61129481611279565b82525050565b60006020820190506112af600083018461128b565b92915050565b6000602082840312156112cb576112ca610ecc565b5b60006112d984828501610eed565b91505092915050565b600081519050919050565b600082825260208201905092915050565b60005b8381101561131c578082015181840152602081019050611301565b60008484015250505050565b6000611333826112e2565b61133d81856112ed565b935061134d8185602086016112fe565b61135681610f0c565b840191505092915050565b6000602082019050818103600083015261137b8184611328565b905092915050565b600080fd5b6000610160828403121561139f5761139e611383565b5b81905092915050565b6000819050919050565b6113bb816113a8565b81146113c657600080fd5b50565b6000813590506113d8816113b2565b92915050565b600080604083850312156113f5576113f4610ecc565b5b600083013567ffffffffffffffff81111561141357611412610ed1565b5b61141f85828601611388565b9250506020611430858286016113c9565b9150509250929050565b7f4e487b7100000000000000000000000000000000000000000000000000000000600052602260045260246000fd5b6000600282049050600182168061148157607f821691505b6020821081036114945761149361143a565b5b50919050565b60008190508160005260206000209050919050565b60006020601f8301049050919050565b600082821b905092915050565b6000600883026114fc7fffffffffffffffffffffffffffffffffffffffffffffffffffffffffffffffff826114bf565b61150686836114bf565b95508019841693508086168417925050509392505050565b600061153961153461152f84610d8b565b61123b565b610d8b565b9050919050565b6000819050919050565b6115538361151e565b61156761155f82611540565b8484546114cc565b825550505050565b600090565b61157c61156f565b61158781848461154a565b505050565b5b818110156115ab576115a0600082611574565b60018101905061158d565b5050565b601f8211156115f0576115c18161149a565b6115ca846114af565b810160208510156115d9578190505b6115ed6115e5856114af565b83018261158c565b50505b505050565b600082821c905092915050565b6000611613600019846008026115f5565b1980831691505092915050565b600061162c8383611602565b9150826002028217905092915050565b611645826112e2565b67ffffffffffffffff81111561165e5761165d610f1d565b5b6116688254611469565b6116738282856115af565b600060209050601f8311600181146116a65760008415611694578287015190505b61169e8582611620565b865550611706565b601f1984166116b48661149a565b60005b828110156116dc578489015182556001820191506020850194506020810190506116b7565b868310156116f957848901516116f5601f891682611602565b8355505b6001600288020188555050505b505050505050565b7f4e487b7100000000000000000000000000000000000000000000000000000000600052603260045260246000fd5b7f496e73756666696369656e742062616c616e6365000000000000000000000000600082015250565b60006117736014836112ed565b915061177e8261173d565b602082019050919050565b600060208201905081810360008301526117a281611766565b9050919050565b600081905092915050565b50565b60006117c46000836117a9565b91506117cf826117b4565b600082019050919050565b60006117e5826117b7565b9150819050919050565b60006117fa82610d8b565b91507fffffffffffffffffffffffffffffffffffffffffffffffffffffffffffffffff820361182c5761182b610d95565b5b600182019050919050565b600080fd5b600080fd5b600080fd5b6000808335600160200384360303811261186357611862611837565b5b80840192508235915067ffffffffffffffff8211156118855761188461183c565b5b6020830192506001820236038313156118a1576118a0611841565b5b509250929050565b7f4e6f207369676e6174757265732070726f766964656400000000000000000000600082015250565b60006118df6016836112ed565b91506118ea826118a9565b602082019050919050565b6000602082019050818103600083015261190e816118d2565b9050919050565b600081905092915050565b7f19457468657265756d205369676e6564204d6573736167653a0a333200000000600082015250565b6000611956601c83611915565b915061196182611920565b601c82019050919050565b6000819050919050565b611987611982826113a8565b61196c565b82525050565b600061199882611949565b91506119a48284611976565b60208201915081905092915050565b6119bc816113a8565b82525050565b600060ff82169050919050565b6119d8816119c2565b82525050565b60006080820190506119f360008301876119b3565b611a0060208301866119cf565b611a0d60408301856119b3565b611a1a60608301846119b3565b95945050505050565b7f5369676e6572206e6f7420666f756e6420696e2075736572735769746841636360008201527f6573730000000000000000000000000000000000000000000000000000000000602082015250565b6000611a7f6023836112ed565b9150611a8a82611a23565b604082019050919050565b60006020820190508181036000830152611aae81611a72565b9050919050565b600080fd5b600080fd5b60008085851115611ad357611ad2611ab5565b5b83861115611ae457611ae3611aba565b5b6001850283019150848603905094509492505050565b600082905092915050565b60007fffffffff0000000000000000000000000000000000000000000000000000000082169050919050565b6000611b3d8383611afa565b82611b488135611b05565b92506004821015611b8857611b837fffffffff00000000000000000000000000000000000000000000000000000000836004036008026114bf565b831692505b505092915050565b7f5369676e6572206d7573742062652061646d696e000000000000000000000000600082015250565b6000611bc66014836112ed565b9150611bd182611b90565b602082019050919050565b60006020820190508181036000830152611bf581611bb9565b9050919050565b7f5369676e6572206d757374206265206163636f756e74616e7400000000000000600082015250565b6000611c326019836112ed565b9150611c3d82611bfc565b602082019050919050565b60006020820190508181036000830152611c6181611c25565b9050919050565b7f4e487b7100000000000000000000000000000000000000000000000000000000600052605160045260246000fdfea26469706673582212209fa38a5b9140700c13f97726de61a0f85171696a908a3f66426c25921e1eb73b64736f6c63430008140033",
  "linkReferences": {},
  "deployedLinkReferences": {}
}