{"contracts/EntryPoint.sol":{"EntryPoint":{"abi":[{"inputs":[{"internalType":"address","name":"account","type":"address"}],"name":"depositTo","outputs":[],"stateMutability":"payable","type":"function"},{"inputs":[{"internalType":"address","name":"","type":"address"}],"name":"deposits","outputs":[{"internalType":"uint256","name":"","type":"uint256"}],"stateMutability":"view","type":"function"},{"inputs":[{"components":[{"internalType":"address","name":"sender","type":"address"},{"internalType":"uint256","name":"nonce","type":"uint256"},{"internalType":"bytes","name":"initCode","type":"bytes"},{"internalType":"bytes","name":"callData","type":"bytes"},{"internalType":"uint256","name":"callGasLimit","type":"uint256"},{"internalType":"uint256","name":"verificationGasLimit","type":"uint256"},{"internalType":"uint256","name":"preVerificationGas","type":"uint256"},{"internalType":"uint256","name":"maxFeePerGas","type":"uint256"},{"internalType":"uint256","name":"maxPriorityFeePerGas","type":"uint256"},{"internalType":"bytes","name":"paymasterAndData","type":"bytes"},{"internalType":"bytes","name":"signature","type":"bytes"}],"internalType":"struct UserOperation","name":"userOp","type":"tuple"}],"name":"getUserOpHash","outputs":[{"internalType":"bytes32","name":"","type":"bytes32"}],"stateMutability":"view","type":"function"},{"inputs":[{"components":[{"internalType":"address","name":"sender","type":"address"},{"internalType":"uint256","name":"nonce","type":"uint256"},{"internalType":"bytes","name":"initCode","type":"bytes"},{"internalType":"bytes","name":"callData","type":"bytes"},{"internalType":"uint256","name":"callGasLimit","type":"uint256"},{"internalType":"uint256","name":"verificationGasLimit","type":"uint256"},{"internalType":"uint256","name":"preVerificationGas","type":"uint256"},{"internalType":"uint256","name":"maxFeePerGas","type":"uint256"},{"internalType":"uint256","name":"maxPriorityFeePerGas","type":"uint256"},{"internalType":"bytes","name":"paymasterAndData","type":"bytes"},{"internalType":"bytes","name":"signature","type":"bytes"}],"internalType":"struct UserOperation[]","name":"ops","type":"tuple[]"}],"name":"handleOps","outputs":[],"stateMutability":"nonpayable","type":"function"},{"inputs":[{"components":[{"internalType":"address","name":"sender","type":"address"},{"internalType":"uint256","name":"nonce","type":"uint256"},{"internalType":"bytes","name":"initCode","type":"bytes"},{"internalType":"bytes","name":"callData","type":"bytes"},{"internalType":"uint256","name":"callGasLimit","type":"uint256"},{"internalType":"uint256","name":"verificationGasLimit","type":"uint256"},{"internalType":"uint256","name":"preVerificationGas","type":"uint256"},{"internalType":"uint256","name":"maxFeePerGas","type":"uint256"},{"internalType":"uint256","name":"maxPriorityFeePerGas","type":"uint256"},{"internalType":"bytes","name":"paymasterAndData","type":"bytes"},{"internalType":"bytes","name":"signature","type":"bytes"}],"internalType":"struct UserOperation","name":"userOp","type":"tuple"}],"name":"validateUserOp","outputs":[],"stateMutability":"nonpayable","type":"function"}],"evm":{"bytecode":{"linkReferences":{},"object":"608060405234801561001057600080fd5b50611265806100206000396000f3fe60806040526004361061004a5760003560e01c8063532d3ac91461004f5780638393db0b14610078578063a6193531146100a1578063b760faf9146100de578063fc7e286d146100fa575b600080fd5b34801561005b57600080fd5b5061007660048036038101906100719190610813565b610137565b005b34801561008457600080fd5b5061009f600480360381019061009a9190610885565b61035d565b005b3480156100ad57600080fd5b506100c860048036038101906100c39190610885565b6104a5565b6040516100d591906108e7565b60405180910390f35b6100f860048036038101906100f39190610960565b6105b1565b005b34801561010657600080fd5b50610121600480360381019061011c9190610960565b61068a565b60405161012e91906109a6565b60405180910390f35b60005b828290508110156103585736838383818110610159576101586109c1565b5b905060200281019061016b91906109ff565b905060005a905060008260000160208101906101879190610960565b73ffffffffffffffffffffffffffffffffffffffff1683608001358480606001906101b29190610a28565b6040516101c0929190610aca565b60006040518083038160008787f1925050503d80600081146101fe576040519150601f19603f3d011682016040523d82523d6000602084013e610203565b606091505b5050905060005a836102159190610b12565b905060006102278560e001353a6106a2565b905060003a61ac096102399190610b46565b82846102459190610b46565b61024f9190610b88565b9050806000808860000160208101906102689190610960565b73ffffffffffffffffffffffffffffffffffffffff1673ffffffffffffffffffffffffffffffffffffffff16815260200190815260200160002060008282546102b19190610b12565b925050819055503373ffffffffffffffffffffffffffffffffffffffff166108fc829081150290604051600060405180830381858888f193505050501580156102fe573d6000803e3d6000fd5b508361033f576040517f08c379a000000000000000000000000000000000000000000000000000000000815260040161033690610c19565b60405180910390fd5b505050505050808061035090610c39565b91505061013a565b505050565b8060e0013581608001356103719190610b46565b6000808360000160208101906103879190610960565b73ffffffffffffffffffffffffffffffffffffffff1673ffffffffffffffffffffffffffffffffffffffff168152602001908152602001600020541015610403576040517f08c379a00000000000000000000000000000000000000000000000000000000081526004016103fa90610cf3565b60405180910390fd5b600061040e826104a5565b90508160000160208101906104239190610960565b73ffffffffffffffffffffffffffffffffffffffff1663fff35b7283836040518363ffffffff1660e01b815260040161045d929190610fb0565b6020604051808303816000875af115801561047c573d6000803e3d6000fd5b505050506040513d601f19601f820116820180604052508101906104a09190610ff5565b505050565b6000808260000160208101906104bb9190610960565b83602001358480604001906104d09190610a28565b6040516104de929190610aca565b60405180910390208580606001906104f69190610a28565b604051610504929190610aca565b604051809103902086608001358760a001358860c001358960e001358a61010001358b8061012001906105379190610a28565b604051610545929190610aca565b60405180910390206040516020016105669a99989796959493929190611031565b604051602081830303815290604052805190602001209050803046604051602001610593939291906110cd565b60405160208183030381529060405280519060200120915050919050565b6105ef6040518060400160405280601881526020017f456e747279506f696e742072656365697665206d6f6e657900000000000000008152506106bb565b60003411610632576040517f08c379a000000000000000000000000000000000000000000000000000000000815260040161062990611150565b60405180910390fd5b346000808373ffffffffffffffffffffffffffffffffffffffff1673ffffffffffffffffffffffffffffffffffffffff16815260200190815260200160002060008282546106809190610b88565b9250508190555050565b60006020528060005260406000206000915090505481565b60008183106106b157816106b3565b825b905092915050565b610751816040516024016106cf91906111de565b6040516020818303038152906040527f41304fac000000000000000000000000000000000000000000000000000000007bffffffffffffffffffffffffffffffffffffffffffffffffffffffff19166020820180517bffffffffffffffffffffffffffffffffffffffffffffffffffffffff8381831617835250505050610754565b50565b61076b8161076361076e61078f565b63ffffffff16565b50565b60006a636f6e736f6c652e6c6f679050600080835160208501845afa505050565b61079a819050919050565b6107a2611200565b565b600080fd5b600080fd5b600080fd5b600080fd5b600080fd5b60008083601f8401126107d3576107d26107ae565b5b8235905067ffffffffffffffff8111156107f0576107ef6107b3565b5b60208301915083602082028301111561080c5761080b6107b8565b5b9250929050565b6000806020838503121561082a576108296107a4565b5b600083013567ffffffffffffffff811115610848576108476107a9565b5b610854858286016107bd565b92509250509250929050565b600080fd5b6000610160828403121561087c5761087b610860565b5b81905092915050565b60006020828403121561089b5761089a6107a4565b5b600082013567ffffffffffffffff8111156108b9576108b86107a9565b5b6108c584828501610865565b91505092915050565b6000819050919050565b6108e1816108ce565b82525050565b60006020820190506108fc60008301846108d8565b92915050565b600073ffffffffffffffffffffffffffffffffffffffff82169050919050565b600061092d82610902565b9050919050565b61093d81610922565b811461094857600080fd5b50565b60008135905061095a81610934565b92915050565b600060208284031215610976576109756107a4565b5b60006109848482850161094b565b91505092915050565b6000819050919050565b6109a08161098d565b82525050565b60006020820190506109bb6000830184610997565b92915050565b7f4e487b7100000000000000000000000000000000000000000000000000000000600052603260045260246000fd5b600080fd5b600080fd5b600080fd5b60008235600161016003833603038112610a1c57610a1b6109f0565b5b80830191505092915050565b60008083356001602003843603038112610a4557610a446109f0565b5b80840192508235915067ffffffffffffffff821115610a6757610a666109f5565b5b602083019250600182023603831315610a8357610a826109fa565b5b509250929050565b600081905092915050565b82818337600083830152505050565b6000610ab18385610a8b565b9350610abe838584610a96565b82840190509392505050565b6000610ad7828486610aa5565b91508190509392505050565b7f4e487b7100000000000000000000000000000000000000000000000000000000600052601160045260246000fd5b6000610b1d8261098d565b9150610b288361098d565b9250828203905081811115610b4057610b3f610ae3565b5b92915050565b6000610b518261098d565b9150610b5c8361098d565b9250828202610b6a8161098d565b91508282048414831517610b8157610b80610ae3565b5b5092915050565b6000610b938261098d565b9150610b9e8361098d565b9250828201905080821115610bb657610bb5610ae3565b5b92915050565b600082825260208201905092915050565b7f5343412063616c6c206661696c65640000000000000000000000000000000000600082015250565b6000610c03600f83610bbc565b9150610c0e82610bcd565b602082019050919050565b60006020820190508181036000830152610c3281610bf6565b9050919050565b6000610c448261098d565b91507fffffffffffffffffffffffffffffffffffffffffffffffffffffffffffffffff8203610c7657610c75610ae3565b5b600182019050919050565b7f4e6f7420656e6f756768206d6f6e657920696e20534341206465706f7369742060008201527f746f2070617920666f7220676173000000000000000000000000000000000000602082015250565b6000610cdd602e83610bbc565b9150610ce882610c81565b604082019050919050565b60006020820190508181036000830152610d0c81610cd0565b9050919050565b6000610d22602084018461094b565b905092915050565b610d3381610922565b82525050565b610d428161098d565b8114610d4d57600080fd5b50565b600081359050610d5f81610d39565b92915050565b6000610d746020840184610d50565b905092915050565b610d858161098d565b82525050565b600080fd5b600080fd5b600080fd5b60008083356001602003843603038112610db757610db6610d95565b5b83810192508235915060208301925067ffffffffffffffff821115610ddf57610dde610d8b565b5b600182023603831315610df557610df4610d90565b5b509250929050565b600082825260208201905092915050565b6000601f19601f8301169050919050565b6000610e2b8385610dfd565b9350610e38838584610a96565b610e4183610e0e565b840190509392505050565b60006101608301610e606000840184610d13565b610e6d6000860182610d2a565b50610e7b6020840184610d65565b610e886020860182610d7c565b50610e966040840184610d9a565b8583036040870152610ea9838284610e1f565b92505050610eba6060840184610d9a565b8583036060870152610ecd838284610e1f565b92505050610ede6080840184610d65565b610eeb6080860182610d7c565b50610ef960a0840184610d65565b610f0660a0860182610d7c565b50610f1460c0840184610d65565b610f2160c0860182610d7c565b50610f2f60e0840184610d65565b610f3c60e0860182610d7c565b50610f4b610100840184610d65565b610f59610100860182610d7c565b50610f68610120840184610d9a565b858303610120870152610f7c838284610e1f565b92505050610f8e610140840184610d9a565b858303610140870152610fa2838284610e1f565b925050508091505092915050565b60006040820190508181036000830152610fca8185610e4c565b9050610fd960208301846108d8565b9392505050565b600081519050610fef81610d39565b92915050565b60006020828403121561100b5761100a6107a4565b5b600061101984828501610fe0565b91505092915050565b61102b81610922565b82525050565b600061014082019050611047600083018d611022565b611054602083018c610997565b611061604083018b6108d8565b61106e606083018a6108d8565b61107b6080830189610997565b61108860a0830188610997565b61109560c0830187610997565b6110a260e0830186610997565b6110b0610100830185610997565b6110be6101208301846108d8565b9b9a5050505050505050505050565b60006060820190506110e260008301866108d8565b6110ef6020830185611022565b6110fc6040830184610997565b949350505050565b7f4d7573742073656e642045544820746f206465706f7369740000000000000000600082015250565b600061113a601883610bbc565b915061114582611104565b602082019050919050565b600060208201905081810360008301526111698161112d565b9050919050565b600081519050919050565b60005b8381101561119957808201518184015260208101905061117e565b60008484015250505050565b60006111b082611170565b6111ba8185610bbc565b93506111ca81856020860161117b565b6111d381610e0e565b840191505092915050565b600060208201905081810360008301526111f881846111a5565b905092915050565b7f4e487b7100000000000000000000000000000000000000000000000000000000600052605160045260246000fdfea2646970667358221220f7f27e131b3d8cb82b5272d0e62264215eafdf30880d9ed46113935b12180d8464736f6c63430008140033","opcodes":"PUSH1 0x80 PUSH1 0x40 MSTORE CALLVALUE DUP1 ISZERO PUSH2 0x10 JUMPI PUSH1 0x0 DUP1 REVERT JUMPDEST POP PUSH2 0x1265 DUP1 PUSH2 0x20 PUSH1 0x0 CODECOPY PUSH1 0x0 RETURN INVALID PUSH1 0x80 PUSH1 0x40 MSTORE PUSH1 0x4 CALLDATASIZE LT PUSH2 0x4A JUMPI PUSH1 0x0 CALLDATALOAD PUSH1 0xE0 SHR DUP1 PUSH4 0x532D3AC9 EQ PUSH2 0x4F JUMPI DUP1 PUSH4 0x8393DB0B EQ PUSH2 0x78 JUMPI DUP1 PUSH4 0xA6193531 EQ PUSH2 0xA1 JUMPI DUP1 PUSH4 0xB760FAF9 EQ PUSH2 0xDE JUMPI DUP1 PUSH4 0xFC7E286D EQ PUSH2 0xFA JUMPI JUMPDEST PUSH1 0x0 DUP1 REVERT JUMPDEST CALLVALUE DUP1 ISZERO PUSH2 0x5B JUMPI PUSH1 0x0 DUP1 REVERT JUMPDEST POP PUSH2 0x76 PUSH1 0x4 DUP1 CALLDATASIZE SUB DUP2 ADD SWAP1 PUSH2 0x71 SWAP2 SWAP1 PUSH2 0x813 JUMP JUMPDEST PUSH2 0x137 JUMP JUMPDEST STOP JUMPDEST CALLVALUE DUP1 ISZERO PUSH2 0x84 JUMPI PUSH1 0x0 DUP1 REVERT JUMPDEST POP PUSH2 0x9F PUSH1 0x4 DUP1 CALLDATASIZE SUB DUP2 ADD SWAP1 PUSH2 0x9A SWAP2 SWAP1 PUSH2 0x885 JUMP JUMPDEST PUSH2 0x35D JUMP JUMPDEST STOP JUMPDEST CALLVALUE DUP1 ISZERO PUSH2 0xAD JUMPI PUSH1 0x0 DUP1 REVERT JUMPDEST POP PUSH2 0xC8 PUSH1 0x4 DUP1 CALLDATASIZE SUB DUP2 ADD SWAP1 PUSH2 0xC3 SWAP2 SWAP1 PUSH2 0x885 JUMP JUMPDEST PUSH2 0x4A5 JUMP JUMPDEST PUSH1 0x40 MLOAD PUSH2 0xD5 SWAP2 SWAP1 PUSH2 0x8E7 JUMP JUMPDEST PUSH1 0x40 MLOAD DUP1 SWAP2 SUB SWAP1 RETURN JUMPDEST PUSH2 0xF8 PUSH1 0x4 DUP1 CALLDATASIZE SUB DUP2 ADD SWAP1 PUSH2 0xF3 SWAP2 SWAP1 PUSH2 0x960 JUMP JUMPDEST PUSH2 0x5B1 JUMP JUMPDEST STOP JUMPDEST CALLVALUE DUP1 ISZERO PUSH2 0x106 JUMPI PUSH1 0x0 DUP1 REVERT JUMPDEST POP PUSH2 0x121 PUSH1 0x4 DUP1 CALLDATASIZE SUB DUP2 ADD SWAP1 PUSH2 0x11C SWAP2 SWAP1 PUSH2 0x960 JUMP JUMPDEST PUSH2 0x68A JUMP JUMPDEST PUSH1 0x40 MLOAD PUSH2 0x12E SWAP2 SWAP1 PUSH2 0x9A6 JUMP JUMPDEST PUSH1 0x40 MLOAD DUP1 SWAP2 SUB SWAP1 RETURN JUMPDEST PUSH1 0x0 JUMPDEST DUP3 DUP3 SWAP1 POP DUP2 LT ISZERO PUSH2 0x358 JUMPI CALLDATASIZE DUP4 DUP4 DUP4 DUP2 DUP2 LT PUSH2 0x159 JUMPI PUSH2 0x158 PUSH2 0x9C1 JUMP JUMPDEST JUMPDEST SWAP1 POP PUSH1 0x20 MUL DUP2 ADD SWAP1 PUSH2 0x16B SWAP2 SWAP1 PUSH2 0x9FF JUMP JUMPDEST SWAP1 POP PUSH1 0x0 GAS SWAP1 POP PUSH1 0x0 DUP3 PUSH1 0x0 ADD PUSH1 0x20 DUP2 ADD SWAP1 PUSH2 0x187 SWAP2 SWAP1 PUSH2 0x960 JUMP JUMPDEST PUSH20 0xFFFFFFFFFFFFFFFFFFFFFFFFFFFFFFFFFFFFFFFF AND DUP4 PUSH1 0x80 ADD CALLDATALOAD DUP5 DUP1 PUSH1 0x60 ADD SWAP1 PUSH2 0x1B2 SWAP2 SWAP1 PUSH2 0xA28 JUMP JUMPDEST PUSH1 0x40 MLOAD PUSH2 0x1C0 SWAP3 SWAP2 SWAP1 PUSH2 0xACA JUMP JUMPDEST PUSH1 0x0 PUSH1 0x40 MLOAD DUP1 DUP4 SUB DUP2 PUSH1 0x0 DUP8 DUP8 CALL SWAP3 POP POP POP RETURNDATASIZE DUP1 PUSH1 0x0 DUP2 EQ PUSH2 0x1FE JUMPI PUSH1 0x40 MLOAD SWAP2 POP PUSH1 0x1F NOT PUSH1 0x3F RETURNDATASIZE ADD AND DUP3 ADD PUSH1 0x40 MSTORE RETURNDATASIZE DUP3 MSTORE RETURNDATASIZE PUSH1 0x0 PUSH1 0x20 DUP5 ADD RETURNDATACOPY PUSH2 0x203 JUMP JUMPDEST PUSH1 0x60 SWAP2 POP JUMPDEST POP POP SWAP1 POP PUSH1 0x0 GAS DUP4 PUSH2 0x215 SWAP2 SWAP1 PUSH2 0xB12 JUMP JUMPDEST SWAP1 POP PUSH1 0x0 PUSH2 0x227 DUP6 PUSH1 0xE0 ADD CALLDATALOAD GASPRICE PUSH2 0x6A2 JUMP JUMPDEST SWAP1 POP PUSH1 0x0 GASPRICE PUSH2 0xAC09 PUSH2 0x239 SWAP2 SWAP1 PUSH2 0xB46 JUMP JUMPDEST DUP3 DUP5 PUSH2 0x245 SWAP2 SWAP1 PUSH2 0xB46 JUMP JUMPDEST PUSH2 0x24F SWAP2 SWAP1 PUSH2 0xB88 JUMP JUMPDEST SWAP1 POP DUP1 PUSH1 0x0 DUP1 DUP9 PUSH1 0x0 ADD PUSH1 0x20 DUP2 ADD SWAP1 PUSH2 0x268 SWAP2 SWAP1 PUSH2 0x960 JUMP JUMPDEST PUSH20 0xFFFFFFFFFFFFFFFFFFFFFFFFFFFFFFFFFFFFFFFF AND PUSH20 0xFFFFFFFFFFFFFFFFFFFFFFFFFFFFFFFFFFFFFFFF AND DUP2 MSTORE PUSH1 0x20 ADD SWAP1 DUP2 MSTORE PUSH1 0x20 ADD PUSH1 0x0 KECCAK256 PUSH1 0x0 DUP3 DUP3 SLOAD PUSH2 0x2B1 SWAP2 SWAP1 PUSH2 0xB12 JUMP JUMPDEST SWAP3 POP POP DUP2 SWAP1 SSTORE POP CALLER PUSH20 0xFFFFFFFFFFFFFFFFFFFFFFFFFFFFFFFFFFFFFFFF AND PUSH2 0x8FC DUP3 SWAP1 DUP2 ISZERO MUL SWAP1 PUSH1 0x40 MLOAD PUSH1 0x0 PUSH1 0x40 MLOAD DUP1 DUP4 SUB DUP2 DUP6 DUP9 DUP9 CALL SWAP4 POP POP POP POP ISZERO DUP1 ISZERO PUSH2 0x2FE JUMPI RETURNDATASIZE PUSH1 0x0 DUP1 RETURNDATACOPY RETURNDATASIZE PUSH1 0x0 REVERT JUMPDEST POP DUP4 PUSH2 0x33F JUMPI PUSH1 0x40 MLOAD PUSH32 0x8C379A000000000000000000000000000000000000000000000000000000000 DUP2 MSTORE PUSH1 0x4 ADD PUSH2 0x336 SWAP1 PUSH2 0xC19 JUMP JUMPDEST PUSH1 0x40 MLOAD DUP1 SWAP2 SUB SWAP1 REVERT JUMPDEST POP POP POP POP POP POP DUP1 DUP1 PUSH2 0x350 SWAP1 PUSH2 0xC39 JUMP JUMPDEST SWAP2 POP POP PUSH2 0x13A JUMP JUMPDEST POP POP POP JUMP JUMPDEST DUP1 PUSH1 0xE0 ADD CALLDATALOAD DUP2 PUSH1 0x80 ADD CALLDATALOAD PUSH2 0x371 SWAP2 SWAP1 PUSH2 0xB46 JUMP JUMPDEST PUSH1 0x0 DUP1 DUP4 PUSH1 0x0 ADD PUSH1 0x20 DUP2 ADD SWAP1 PUSH2 0x387 SWAP2 SWAP1 PUSH2 0x960 JUMP JUMPDEST PUSH20 0xFFFFFFFFFFFFFFFFFFFFFFFFFFFFFFFFFFFFFFFF AND PUSH20 0xFFFFFFFFFFFFFFFFFFFFFFFFFFFFFFFFFFFFFFFF AND DUP2 MSTORE PUSH1 0x20 ADD SWAP1 DUP2 MSTORE PUSH1 0x20 ADD PUSH1 0x0 KECCAK256 SLOAD LT ISZERO PUSH2 0x403 JUMPI PUSH1 0x40 MLOAD PUSH32 0x8C379A000000000000000000000000000000000000000000000000000000000 DUP2 MSTORE PUSH1 0x4 ADD PUSH2 0x3FA SWAP1 PUSH2 0xCF3 JUMP JUMPDEST PUSH1 0x40 MLOAD DUP1 SWAP2 SUB SWAP1 REVERT JUMPDEST PUSH1 0x0 PUSH2 0x40E DUP3 PUSH2 0x4A5 JUMP JUMPDEST SWAP1 POP DUP2 PUSH1 0x0 ADD PUSH1 0x20 DUP2 ADD SWAP1 PUSH2 0x423 SWAP2 SWAP1 PUSH2 0x960 JUMP JUMPDEST PUSH20 0xFFFFFFFFFFFFFFFFFFFFFFFFFFFFFFFFFFFFFFFF AND PUSH4 0xFFF35B72 DUP4 DUP4 PUSH1 0x40 MLOAD DUP4 PUSH4 0xFFFFFFFF AND PUSH1 0xE0 SHL DUP2 MSTORE PUSH1 0x4 ADD PUSH2 0x45D SWAP3 SWAP2 SWAP1 PUSH2 0xFB0 JUMP JUMPDEST PUSH1 0x20 PUSH1 0x40 MLOAD DUP1 DUP4 SUB DUP2 PUSH1 0x0 DUP8 GAS CALL ISZERO DUP1 ISZERO PUSH2 0x47C JUMPI RETURNDATASIZE PUSH1 0x0 DUP1 RETURNDATACOPY RETURNDATASIZE PUSH1 0x0 REVERT JUMPDEST POP POP POP POP PUSH1 0x40 MLOAD RETURNDATASIZE PUSH1 0x1F NOT PUSH1 0x1F DUP3 ADD AND DUP3 ADD DUP1 PUSH1 0x40 MSTORE POP DUP2 ADD SWAP1 PUSH2 0x4A0 SWAP2 SWAP1 PUSH2 0xFF5 JUMP JUMPDEST POP POP POP JUMP JUMPDEST PUSH1 0x0 DUP1 DUP3 PUSH1 0x0 ADD PUSH1 0x20 DUP2 ADD SWAP1 PUSH2 0x4BB SWAP2 SWAP1 PUSH2 0x960 JUMP JUMPDEST DUP4 PUSH1 0x20 ADD CALLDATALOAD DUP5 DUP1 PUSH1 0x40 ADD SWAP1 PUSH2 0x4D0 SWAP2 SWAP1 PUSH2 0xA28 JUMP JUMPDEST PUSH1 0x40 MLOAD PUSH2 0x4DE SWAP3 SWAP2 SWAP1 PUSH2 0xACA JUMP JUMPDEST PUSH1 0x40 MLOAD DUP1 SWAP2 SUB SWAP1 KECCAK256 DUP6 DUP1 PUSH1 0x60 ADD SWAP1 PUSH2 0x4F6 SWAP2 SWAP1 PUSH2 0xA28 JUMP JUMPDEST PUSH1 0x40 MLOAD PUSH2 0x504 SWAP3 SWAP2 SWAP1 PUSH2 0xACA JUMP JUMPDEST PUSH1 0x40 MLOAD DUP1 SWAP2 SUB SWAP1 KECCAK256 DUP7 PUSH1 0x80 ADD CALLDATALOAD DUP8 PUSH1 0xA0 ADD CALLDATALOAD DUP9 PUSH1 0xC0 ADD CALLDATALOAD DUP10 PUSH1 0xE0 ADD CALLDATALOAD DUP11 PUSH2 0x100 ADD CALLDATALOAD DUP12 DUP1 PUSH2 0x120 ADD SWAP1 PUSH2 0x537 SWAP2 SWAP1 PUSH2 0xA28 JUMP JUMPDEST PUSH1 0x40 MLOAD PUSH2 0x545 SWAP3 SWAP2 SWAP1 PUSH2 0xACA JUMP JUMPDEST PUSH1 0x40 MLOAD DUP1 SWAP2 SUB SWAP1 KECCAK256 PUSH1 0x40 MLOAD PUSH1 0x20 ADD PUSH2 0x566 SWAP11 SWAP10 SWAP9 SWAP8 SWAP7 SWAP6 SWAP5 SWAP4 SWAP3 SWAP2 SWAP1 PUSH2 0x1031 JUMP JUMPDEST PUSH1 0x40 MLOAD PUSH1 0x20 DUP2 DUP4 SUB SUB DUP2 MSTORE SWAP1 PUSH1 0x40 MSTORE DUP1 MLOAD SWAP1 PUSH1 0x20 ADD KECCAK256 SWAP1 POP DUP1 ADDRESS CHAINID PUSH1 0x40 MLOAD PUSH1 0x20 ADD PUSH2 0x593 SWAP4 SWAP3 SWAP2 SWAP1 PUSH2 0x10CD JUMP JUMPDEST PUSH1 0x40 MLOAD PUSH1 0x20 DUP2 DUP4 SUB SUB DUP2 MSTORE SWAP1 PUSH1 0x40 MSTORE DUP1 MLOAD SWAP1 PUSH1 0x20 ADD KECCAK256 SWAP2 POP POP SWAP2 SWAP1 POP JUMP JUMPDEST PUSH2 0x5EF PUSH1 0x40 MLOAD DUP1 PUSH1 0x40 ADD PUSH1 0x40 MSTORE DUP1 PUSH1 0x18 DUP2 MSTORE PUSH1 0x20 ADD PUSH32 0x456E747279506F696E742072656365697665206D6F6E65790000000000000000 DUP2 MSTORE POP PUSH2 0x6BB JUMP JUMPDEST PUSH1 0x0 CALLVALUE GT PUSH2 0x632 JUMPI PUSH1 0x40 MLOAD PUSH32 0x8C379A000000000000000000000000000000000000000000000000000000000 DUP2 MSTORE PUSH1 0x4 ADD PUSH2 0x629 SWAP1 PUSH2 0x1150 JUMP JUMPDEST PUSH1 0x40 MLOAD DUP1 SWAP2 SUB SWAP1 REVERT JUMPDEST CALLVALUE PUSH1 0x0 DUP1 DUP4 PUSH20 0xFFFFFFFFFFFFFFFFFFFFFFFFFFFFFFFFFFFFFFFF AND PUSH20 0xFFFFFFFFFFFFFFFFFFFFFFFFFFFFFFFFFFFFFFFF AND DUP2 MSTORE PUSH1 0x20 ADD SWAP1 DUP2 MSTORE PUSH1 0x20 ADD PUSH1 0x0 KECCAK256 PUSH1 0x0 DUP3 DUP3 SLOAD PUSH2 0x680 SWAP2 SWAP1 PUSH2 0xB88 JUMP JUMPDEST SWAP3 POP POP DUP2 SWAP1 SSTORE POP POP JUMP JUMPDEST PUSH1 0x0 PUSH1 0x20 MSTORE DUP1 PUSH1 0x0 MSTORE PUSH1 0x40 PUSH1 0x0 KECCAK256 PUSH1 0x0 SWAP2 POP SWAP1 POP SLOAD DUP2 JUMP JUMPDEST PUSH1 0x0 DUP2 DUP4 LT PUSH2 0x6B1 JUMPI DUP2 PUSH2 0x6B3 JUMP JUMPDEST DUP3 JUMPDEST SWAP1 POP SWAP3 SWAP2 POP POP JUMP JUMPDEST PUSH2 0x751 DUP2 PUSH1 0x40 MLOAD PUSH1 0x24 ADD PUSH2 0x6CF SWAP2 SWAP1 PUSH2 0x11DE JUMP JUMPDEST PUSH1 0x40 MLOAD PUSH1 0x20 DUP2 DUP4 SUB SUB DUP2 MSTORE SWAP1 PUSH1 0x40 MSTORE PUSH32 0x41304FAC00000000000000000000000000000000000000000000000000000000 PUSH28 0xFFFFFFFFFFFFFFFFFFFFFFFFFFFFFFFFFFFFFFFFFFFFFFFFFFFFFFFF NOT AND PUSH1 0x20 DUP3 ADD DUP1 MLOAD PUSH28 0xFFFFFFFFFFFFFFFFFFFFFFFFFFFFFFFFFFFFFFFFFFFFFFFFFFFFFFFF DUP4 DUP2 DUP4 AND OR DUP4 MSTORE POP POP POP POP PUSH2 0x754 JUMP JUMPDEST POP JUMP JUMPDEST PUSH2 0x76B DUP2 PUSH2 0x763 PUSH2 0x76E PUSH2 0x78F JUMP JUMPDEST PUSH4 0xFFFFFFFF AND JUMP JUMPDEST POP JUMP JUMPDEST PUSH1 0x0 PUSH11 0x636F6E736F6C652E6C6F67 SWAP1 POP PUSH1 0x0 DUP1 DUP4 MLOAD PUSH1 0x20 DUP6 ADD DUP5 GAS STATICCALL POP POP POP JUMP JUMPDEST PUSH2 0x79A DUP2 SWAP1 POP SWAP2 SWAP1 POP JUMP JUMPDEST PUSH2 0x7A2 PUSH2 0x1200 JUMP JUMPDEST JUMP JUMPDEST PUSH1 0x0 DUP1 REVERT JUMPDEST PUSH1 0x0 DUP1 REVERT JUMPDEST PUSH1 0x0 DUP1 REVERT JUMPDEST PUSH1 0x0 DUP1 REVERT JUMPDEST PUSH1 0x0 DUP1 REVERT JUMPDEST PUSH1 0x0 DUP1 DUP4 PUSH1 0x1F DUP5 ADD SLT PUSH2 0x7D3 JUMPI PUSH2 0x7D2 PUSH2 0x7AE JUMP JUMPDEST JUMPDEST DUP3 CALLDATALOAD SWAP1 POP PUSH8 0xFFFFFFFFFFFFFFFF DUP2 GT ISZERO PUSH2 0x7F0 JUMPI PUSH2 0x7EF PUSH2 0x7B3 JUMP JUMPDEST JUMPDEST PUSH1 0x20 DUP4 ADD SWAP2 POP DUP4 PUSH1 0x20 DUP3 MUL DUP4 ADD GT ISZERO PUSH2 0x80C JUMPI PUSH2 0x80B PUSH2 0x7B8 JUMP JUMPDEST JUMPDEST SWAP3 POP SWAP3 SWAP1 POP JUMP JUMPDEST PUSH1 0x0 DUP1 PUSH1 0x20 DUP4 DUP6 SUB SLT ISZERO PUSH2 0x82A JUMPI PUSH2 0x829 PUSH2 0x7A4 JUMP JUMPDEST JUMPDEST PUSH1 0x0 DUP4 ADD CALLDATALOAD PUSH8 0xFFFFFFFFFFFFFFFF DUP2 GT ISZERO PUSH2 0x848 JUMPI PUSH2 0x847 PUSH2 0x7A9 JUMP JUMPDEST JUMPDEST PUSH2 0x854 DUP6 DUP3 DUP7 ADD PUSH2 0x7BD JUMP JUMPDEST SWAP3 POP SWAP3 POP POP SWAP3 POP SWAP3 SWAP1 POP JUMP JUMPDEST PUSH1 0x0 DUP1 REVERT JUMPDEST PUSH1 0x0 PUSH2 0x160 DUP3 DUP5 SUB SLT ISZERO PUSH2 0x87C JUMPI PUSH2 0x87B PUSH2 0x860 JUMP JUMPDEST JUMPDEST DUP2 SWAP1 POP SWAP3 SWAP2 POP POP JUMP JUMPDEST PUSH1 0x0 PUSH1 0x20 DUP3 DUP5 SUB SLT ISZERO PUSH2 0x89B JUMPI PUSH2 0x89A PUSH2 0x7A4 JUMP JUMPDEST JUMPDEST PUSH1 0x0 DUP3 ADD CALLDATALOAD PUSH8 0xFFFFFFFFFFFFFFFF DUP2 GT ISZERO PUSH2 0x8B9 JUMPI PUSH2 0x8B8 PUSH2 0x7A9 JUMP JUMPDEST JUMPDEST PUSH2 0x8C5 DUP5 DUP3 DUP6 ADD PUSH2 0x865 JUMP JUMPDEST SWAP2 POP POP SWAP3 SWAP2 POP POP JUMP JUMPDEST PUSH1 0x0 DUP2 SWAP1 POP SWAP2 SWAP1 POP JUMP JUMPDEST PUSH2 0x8E1 DUP2 PUSH2 0x8CE JUMP JUMPDEST DUP3 MSTORE POP POP JUMP JUMPDEST PUSH1 0x0 PUSH1 0x20 DUP3 ADD SWAP1 POP PUSH2 0x8FC PUSH1 0x0 DUP4 ADD DUP5 PUSH2 0x8D8 JUMP JUMPDEST SWAP3 SWAP2 POP POP JUMP JUMPDEST PUSH1 0x0 PUSH20 0xFFFFFFFFFFFFFFFFFFFFFFFFFFFFFFFFFFFFFFFF DUP3 AND SWAP1 POP SWAP2 SWAP1 POP JUMP JUMPDEST PUSH1 0x0 PUSH2 0x92D DUP3 PUSH2 0x902 JUMP JUMPDEST SWAP1 POP SWAP2 SWAP1 POP JUMP JUMPDEST PUSH2 0x93D DUP2 PUSH2 0x922 JUMP JUMPDEST DUP2 EQ PUSH2 0x948 JUMPI PUSH1 0x0 DUP1 REVERT JUMPDEST POP JUMP JUMPDEST PUSH1 0x0 DUP2 CALLDATALOAD SWAP1 POP PUSH2 0x95A DUP2 PUSH2 0x934 JUMP JUMPDEST SWAP3 SWAP2 POP POP JUMP JUMPDEST PUSH1 0x0 PUSH1 0x20 DUP3 DUP5 SUB SLT ISZERO PUSH2 0x976 JUMPI PUSH2 0x975 PUSH2 0x7A4 JUMP JUMPDEST JUMPDEST PUSH1 0x0 PUSH2 0x984 DUP5 DUP3 DUP6 ADD PUSH2 0x94B JUMP JUMPDEST SWAP2 POP POP SWAP3 SWAP2 POP POP JUMP JUMPDEST PUSH1 0x0 DUP2 SWAP1 POP SWAP2 SWAP1 POP JUMP JUMPDEST PUSH2 0x9A0 DUP2 PUSH2 0x98D JUMP JUMPDEST DUP3 MSTORE POP POP JUMP JUMPDEST PUSH1 0x0 PUSH1 0x20 DUP3 ADD SWAP1 POP PUSH2 0x9BB PUSH1 0x0 DUP4 ADD DUP5 PUSH2 0x997 JUMP JUMPDEST SWAP3 SWAP2 POP POP JUMP JUMPDEST PUSH32 0x4E487B7100000000000000000000000000000000000000000000000000000000 PUSH1 0x0 MSTORE PUSH1 0x32 PUSH1 0x4 MSTORE PUSH1 0x24 PUSH1 0x0 REVERT JUMPDEST PUSH1 0x0 DUP1 REVERT JUMPDEST PUSH1 0x0 DUP1 REVERT JUMPDEST PUSH1 0x0 DUP1 REVERT JUMPDEST PUSH1 0x0 DUP3 CALLDATALOAD PUSH1 0x1 PUSH2 0x160 SUB DUP4 CALLDATASIZE SUB SUB DUP2 SLT PUSH2 0xA1C JUMPI PUSH2 0xA1B PUSH2 0x9F0 JUMP JUMPDEST JUMPDEST DUP1 DUP4 ADD SWAP2 POP POP SWAP3 SWAP2 POP POP JUMP JUMPDEST PUSH1 0x0 DUP1 DUP4 CALLDATALOAD PUSH1 0x1 PUSH1 0x20 SUB DUP5 CALLDATASIZE SUB SUB DUP2 SLT PUSH2 0xA45 JUMPI PUSH2 0xA44 PUSH2 0x9F0 JUMP JUMPDEST JUMPDEST DUP1 DUP5 ADD SWAP3 POP DUP3 CALLDATALOAD SWAP2 POP PUSH8 0xFFFFFFFFFFFFFFFF DUP3 GT ISZERO PUSH2 0xA67 JUMPI PUSH2 0xA66 PUSH2 0x9F5 JUMP JUMPDEST JUMPDEST PUSH1 0x20 DUP4 ADD SWAP3 POP PUSH1 0x1 DUP3 MUL CALLDATASIZE SUB DUP4 SGT ISZERO PUSH2 0xA83 JUMPI PUSH2 0xA82 PUSH2 0x9FA JUMP JUMPDEST JUMPDEST POP SWAP3 POP SWAP3 SWAP1 POP JUMP JUMPDEST PUSH1 0x0 DUP2 SWAP1 POP SWAP3 SWAP2 POP POP JUMP JUMPDEST DUP3 DUP2 DUP4 CALLDATACOPY PUSH1 0x0 DUP4 DUP4 ADD MSTORE POP POP POP JUMP JUMPDEST PUSH1 0x0 PUSH2 0xAB1 DUP4 DUP6 PUSH2 0xA8B JUMP JUMPDEST SWAP4 POP PUSH2 0xABE DUP4 DUP6 DUP5 PUSH2 0xA96 JUMP JUMPDEST DUP3 DUP5 ADD SWAP1 POP SWAP4 SWAP3 POP POP POP JUMP JUMPDEST PUSH1 0x0 PUSH2 0xAD7 DUP3 DUP5 DUP7 PUSH2 0xAA5 JUMP JUMPDEST SWAP2 POP DUP2 SWAP1 POP SWAP4 SWAP3 POP POP POP JUMP JUMPDEST PUSH32 0x4E487B7100000000000000000000000000000000000000000000000000000000 PUSH1 0x0 MSTORE PUSH1 0x11 PUSH1 0x4 MSTORE PUSH1 0x24 PUSH1 0x0 REVERT JUMPDEST PUSH1 0x0 PUSH2 0xB1D DUP3 PUSH2 0x98D JUMP JUMPDEST SWAP2 POP PUSH2 0xB28 DUP4 PUSH2 0x98D JUMP JUMPDEST SWAP3 POP DUP3 DUP3 SUB SWAP1 POP DUP2 DUP2 GT ISZERO PUSH2 0xB40 JUMPI PUSH2 0xB3F PUSH2 0xAE3 JUMP JUMPDEST JUMPDEST SWAP3 SWAP2 POP POP JUMP JUMPDEST PUSH1 0x0 PUSH2 0xB51 DUP3 PUSH2 0x98D JUMP JUMPDEST SWAP2 POP PUSH2 0xB5C DUP4 PUSH2 0x98D JUMP JUMPDEST SWAP3 POP DUP3 DUP3 MUL PUSH2 0xB6A DUP2 PUSH2 0x98D JUMP JUMPDEST SWAP2 POP DUP3 DUP3 DIV DUP5 EQ DUP4 ISZERO OR PUSH2 0xB81 JUMPI PUSH2 0xB80 PUSH2 0xAE3 JUMP JUMPDEST JUMPDEST POP SWAP3 SWAP2 POP POP JUMP JUMPDEST PUSH1 0x0 PUSH2 0xB93 DUP3 PUSH2 0x98D JUMP JUMPDEST SWAP2 POP PUSH2 0xB9E DUP4 PUSH2 0x98D JUMP JUMPDEST SWAP3 POP DUP3 DUP3 ADD SWAP1 POP DUP1 DUP3 GT ISZERO PUSH2 0xBB6 JUMPI PUSH2 0xBB5 PUSH2 0xAE3 JUMP JUMPDEST JUMPDEST SWAP3 SWAP2 POP POP JUMP JUMPDEST PUSH1 0x0 DUP3 DUP3 MSTORE PUSH1 0x20 DUP3 ADD SWAP1 POP SWAP3 SWAP2 POP POP JUMP JUMPDEST PUSH32 0x5343412063616C6C206661696C65640000000000000000000000000000000000 PUSH1 0x0 DUP3 ADD MSTORE POP JUMP JUMPDEST PUSH1 0x0 PUSH2 0xC03 PUSH1 0xF DUP4 PUSH2 0xBBC JUMP JUMPDEST SWAP2 POP PUSH2 0xC0E DUP3 PUSH2 0xBCD JUMP JUMPDEST PUSH1 0x20 DUP3 ADD SWAP1 POP SWAP2 SWAP1 POP JUMP JUMPDEST PUSH1 0x0 PUSH1 0x20 DUP3 ADD SWAP1 POP DUP2 DUP2 SUB PUSH1 0x0 DUP4 ADD MSTORE PUSH2 0xC32 DUP2 PUSH2 0xBF6 JUMP JUMPDEST SWAP1 POP SWAP2 SWAP1 POP JUMP JUMPDEST PUSH1 0x0 PUSH2 0xC44 DUP3 PUSH2 0x98D JUMP JUMPDEST SWAP2 POP PUSH32 0xFFFFFFFFFFFFFFFFFFFFFFFFFFFFFFFFFFFFFFFFFFFFFFFFFFFFFFFFFFFFFFFF DUP3 SUB PUSH2 0xC76 JUMPI PUSH2 0xC75 PUSH2 0xAE3 JUMP JUMPDEST JUMPDEST PUSH1 0x1 DUP3 ADD SWAP1 POP SWAP2 SWAP1 POP JUMP JUMPDEST PUSH32 0x4E6F7420656E6F756768206D6F6E657920696E20534341206465706F73697420 PUSH1 0x0 DUP3 ADD MSTORE PUSH32 0x746F2070617920666F7220676173000000000000000000000000000000000000 PUSH1 0x20 DUP3 ADD MSTORE POP JUMP JUMPDEST PUSH1 0x0 PUSH2 0xCDD PUSH1 0x2E DUP4 PUSH2 0xBBC JUMP JUMPDEST SWAP2 POP PUSH2 0xCE8 DUP3 PUSH2 0xC81 JUMP JUMPDEST PUSH1 0x40 DUP3 ADD SWAP1 POP SWAP2 SWAP1 POP JUMP JUMPDEST PUSH1 0x0 PUSH1 0x20 DUP3 ADD SWAP1 POP DUP2 DUP2 SUB PUSH1 0x0 DUP4 ADD MSTORE PUSH2 0xD0C DUP2 PUSH2 0xCD0 JUMP JUMPDEST SWAP1 POP SWAP2 SWAP1 POP JUMP JUMPDEST PUSH1 0x0 PUSH2 0xD22 PUSH1 0x20 DUP5 ADD DUP5 PUSH2 0x94B JUMP JUMPDEST SWAP1 POP SWAP3 SWAP2 POP POP JUMP JUMPDEST PUSH2 0xD33 DUP2 PUSH2 0x922 JUMP JUMPDEST DUP3 MSTORE POP POP JUMP JUMPDEST PUSH2 0xD42 DUP2 PUSH2 0x98D JUMP JUMPDEST DUP2 EQ PUSH2 0xD4D JUMPI PUSH1 0x0 DUP1 REVERT JUMPDEST POP JUMP JUMPDEST PUSH1 0x0 DUP2 CALLDATALOAD SWAP1 POP PUSH2 0xD5F DUP2 PUSH2 0xD39 JUMP JUMPDEST SWAP3 SWAP2 POP POP JUMP JUMPDEST PUSH1 0x0 PUSH2 0xD74 PUSH1 0x20 DUP5 ADD DUP5 PUSH2 0xD50 JUMP JUMPDEST SWAP1 POP SWAP3 SWAP2 POP POP JUMP JUMPDEST PUSH2 0xD85 DUP2 PUSH2 0x98D JUMP JUMPDEST DUP3 MSTORE POP POP JUMP JUMPDEST PUSH1 0x0 DUP1 REVERT JUMPDEST PUSH1 0x0 DUP1 REVERT JUMPDEST PUSH1 0x0 DUP1 REVERT JUMPDEST PUSH1 0x0 DUP1 DUP4 CALLDATALOAD PUSH1 0x1 PUSH1 0x20 SUB DUP5 CALLDATASIZE SUB SUB DUP2 SLT PUSH2 0xDB7 JUMPI PUSH2 0xDB6 PUSH2 0xD95 JUMP JUMPDEST JUMPDEST DUP4 DUP2 ADD SWAP3 POP DUP3 CALLDATALOAD SWAP2 POP PUSH1 0x20 DUP4 ADD SWAP3 POP PUSH8 0xFFFFFFFFFFFFFFFF DUP3 GT ISZERO PUSH2 0xDDF JUMPI PUSH2 0xDDE PUSH2 0xD8B JUMP JUMPDEST JUMPDEST PUSH1 0x1 DUP3 MUL CALLDATASIZE SUB DUP4 SGT ISZERO PUSH2 0xDF5 JUMPI PUSH2 0xDF4 PUSH2 0xD90 JUMP JUMPDEST JUMPDEST POP SWAP3 POP SWAP3 SWAP1 POP JUMP JUMPDEST PUSH1 0x0 DUP3 DUP3 MSTORE PUSH1 0x20 DUP3 ADD SWAP1 POP SWAP3 SWAP2 POP POP JUMP JUMPDEST PUSH1 0x0 PUSH1 0x1F NOT PUSH1 0x1F DUP4 ADD AND SWAP1 POP SWAP2 SWAP1 POP JUMP JUMPDEST PUSH1 0x0 PUSH2 0xE2B DUP4 DUP6 PUSH2 0xDFD JUMP JUMPDEST SWAP4 POP PUSH2 0xE38 DUP4 DUP6 DUP5 PUSH2 0xA96 JUMP JUMPDEST PUSH2 0xE41 DUP4 PUSH2 0xE0E JUMP JUMPDEST DUP5 ADD SWAP1 POP SWAP4 SWAP3 POP POP POP JUMP JUMPDEST PUSH1 0x0 PUSH2 0x160 DUP4 ADD PUSH2 0xE60 PUSH1 0x0 DUP5 ADD DUP5 PUSH2 0xD13 JUMP JUMPDEST PUSH2 0xE6D PUSH1 0x0 DUP7 ADD DUP3 PUSH2 0xD2A JUMP JUMPDEST POP PUSH2 0xE7B PUSH1 0x20 DUP5 ADD DUP5 PUSH2 0xD65 JUMP JUMPDEST PUSH2 0xE88 PUSH1 0x20 DUP7 ADD DUP3 PUSH2 0xD7C JUMP JUMPDEST POP PUSH2 0xE96 PUSH1 0x40 DUP5 ADD DUP5 PUSH2 0xD9A JUMP JUMPDEST DUP6 DUP4 SUB PUSH1 0x40 DUP8 ADD MSTORE PUSH2 0xEA9 DUP4 DUP3 DUP5 PUSH2 0xE1F JUMP JUMPDEST SWAP3 POP POP POP PUSH2 0xEBA PUSH1 0x60 DUP5 ADD DUP5 PUSH2 0xD9A JUMP JUMPDEST DUP6 DUP4 SUB PUSH1 0x60 DUP8 ADD MSTORE PUSH2 0xECD DUP4 DUP3 DUP5 PUSH2 0xE1F JUMP JUMPDEST SWAP3 POP POP POP PUSH2 0xEDE PUSH1 0x80 DUP5 ADD DUP5 PUSH2 0xD65 JUMP JUMPDEST PUSH2 0xEEB PUSH1 0x80 DUP7 ADD DUP3 PUSH2 0xD7C JUMP JUMPDEST POP PUSH2 0xEF9 PUSH1 0xA0 DUP5 ADD DUP5 PUSH2 0xD65 JUMP JUMPDEST PUSH2 0xF06 PUSH1 0xA0 DUP7 ADD DUP3 PUSH2 0xD7C JUMP JUMPDEST POP PUSH2 0xF14 PUSH1 0xC0 DUP5 ADD DUP5 PUSH2 0xD65 JUMP JUMPDEST PUSH2 0xF21 PUSH1 0xC0 DUP7 ADD DUP3 PUSH2 0xD7C JUMP JUMPDEST POP PUSH2 0xF2F PUSH1 0xE0 DUP5 ADD DUP5 PUSH2 0xD65 JUMP JUMPDEST PUSH2 0xF3C PUSH1 0xE0 DUP7 ADD DUP3 PUSH2 0xD7C JUMP JUMPDEST POP PUSH2 0xF4B PUSH2 0x100 DUP5 ADD DUP5 PUSH2 0xD65 JUMP JUMPDEST PUSH2 0xF59 PUSH2 0x100 DUP7 ADD DUP3 PUSH2 0xD7C JUMP JUMPDEST POP PUSH2 0xF68 PUSH2 0x120 DUP5 ADD DUP5 PUSH2 0xD9A JUMP JUMPDEST DUP6 DUP4 SUB PUSH2 0x120 DUP8 ADD MSTORE PUSH2 0xF7C DUP4 DUP3 DUP5 PUSH2 0xE1F JUMP JUMPDEST SWAP3 POP POP POP PUSH2 0xF8E PUSH2 0x140 DUP5 ADD DUP5 PUSH2 0xD9A JUMP JUMPDEST DUP6 DUP4 SUB PUSH2 0x140 DUP8 ADD MSTORE PUSH2 0xFA2 DUP4 DUP3 DUP5 PUSH2 0xE1F JUMP JUMPDEST SWAP3 POP POP POP DUP1 SWAP2 POP POP SWAP3 SWAP2 POP POP JUMP JUMPDEST PUSH1 0x0 PUSH1 0x40 DUP3 ADD SWAP1 POP DUP2 DUP2 SUB PUSH1 0x0 DUP4 ADD MSTORE PUSH2 0xFCA DUP2 DUP6 PUSH2 0xE4C JUMP JUMPDEST SWAP1 POP PUSH2 0xFD9 PUSH1 0x20 DUP4 ADD DUP5 PUSH2 0x8D8 JUMP JUMPDEST SWAP4 SWAP3 POP POP POP JUMP JUMPDEST PUSH1 0x0 DUP2 MLOAD SWAP1 POP PUSH2 0xFEF DUP2 PUSH2 0xD39 JUMP JUMPDEST SWAP3 SWAP2 POP POP JUMP JUMPDEST PUSH1 0x0 PUSH1 0x20 DUP3 DUP5 SUB SLT ISZERO PUSH2 0x100B JUMPI PUSH2 0x100A PUSH2 0x7A4 JUMP JUMPDEST JUMPDEST PUSH1 0x0 PUSH2 0x1019 DUP5 DUP3 DUP6 ADD PUSH2 0xFE0 JUMP JUMPDEST SWAP2 POP POP SWAP3 SWAP2 POP POP JUMP JUMPDEST PUSH2 0x102B DUP2 PUSH2 0x922 JUMP JUMPDEST DUP3 MSTORE POP POP JUMP JUMPDEST PUSH1 0x0 PUSH2 0x140 DUP3 ADD SWAP1 POP PUSH2 0x1047 PUSH1 0x0 DUP4 ADD DUP14 PUSH2 0x1022 JUMP JUMPDEST PUSH2 0x1054 PUSH1 0x20 DUP4 ADD DUP13 PUSH2 0x997 JUMP JUMPDEST PUSH2 0x1061 PUSH1 0x40 DUP4 ADD DUP12 PUSH2 0x8D8 JUMP JUMPDEST PUSH2 0x106E PUSH1 0x60 DUP4 ADD DUP11 PUSH2 0x8D8 JUMP JUMPDEST PUSH2 0x107B PUSH1 0x80 DUP4 ADD DUP10 PUSH2 0x997 JUMP JUMPDEST PUSH2 0x1088 PUSH1 0xA0 DUP4 ADD DUP9 PUSH2 0x997 JUMP JUMPDEST PUSH2 0x1095 PUSH1 0xC0 DUP4 ADD DUP8 PUSH2 0x997 JUMP JUMPDEST PUSH2 0x10A2 PUSH1 0xE0 DUP4 ADD DUP7 PUSH2 0x997 JUMP JUMPDEST PUSH2 0x10B0 PUSH2 0x100 DUP4 ADD DUP6 PUSH2 0x997 JUMP JUMPDEST PUSH2 0x10BE PUSH2 0x120 DUP4 ADD DUP5 PUSH2 0x8D8 JUMP JUMPDEST SWAP12 SWAP11 POP POP POP POP POP POP POP POP POP POP POP JUMP JUMPDEST PUSH1 0x0 PUSH1 0x60 DUP3 ADD SWAP1 POP PUSH2 0x10E2 PUSH1 0x0 DUP4 ADD DUP7 PUSH2 0x8D8 JUMP JUMPDEST PUSH2 0x10EF PUSH1 0x20 DUP4 ADD DUP6 PUSH2 0x1022 JUMP JUMPDEST PUSH2 0x10FC PUSH1 0x40 DUP4 ADD DUP5 PUSH2 0x997 JUMP JUMPDEST SWAP5 SWAP4 POP POP POP POP JUMP JUMPDEST PUSH32 0x4D7573742073656E642045544820746F206465706F7369740000000000000000 PUSH1 0x0 DUP3 ADD MSTORE POP JUMP JUMPDEST PUSH1 0x0 PUSH2 0x113A PUSH1 0x18 DUP4 PUSH2 0xBBC JUMP JUMPDEST SWAP2 POP PUSH2 0x1145 DUP3 PUSH2 0x1104 JUMP JUMPDEST PUSH1 0x20 DUP3 ADD SWAP1 POP SWAP2 SWAP1 POP JUMP JUMPDEST PUSH1 0x0 PUSH1 0x20 DUP3 ADD SWAP1 POP DUP2 DUP2 SUB PUSH1 0x0 DUP4 ADD MSTORE PUSH2 0x1169 DUP2 PUSH2 0x112D JUMP JUMPDEST SWAP1 POP SWAP2 SWAP1 POP JUMP JUMPDEST PUSH1 0x0 DUP2 MLOAD SWAP1 POP SWAP2 SWAP1 POP JUMP JUMPDEST PUSH1 0x0 JUMPDEST DUP4 DUP2 LT ISZERO PUSH2 0x1199 JUMPI DUP1 DUP3 ADD MLOAD DUP2 DUP5 ADD MSTORE PUSH1 0x20 DUP2 ADD SWAP1 POP PUSH2 0x117E JUMP JUMPDEST PUSH1 0x0 DUP5 DUP5 ADD MSTORE POP POP POP POP JUMP JUMPDEST PUSH1 0x0 PUSH2 0x11B0 DUP3 PUSH2 0x1170 JUMP JUMPDEST PUSH2 0x11BA DUP2 DUP6 PUSH2 0xBBC JUMP JUMPDEST SWAP4 POP PUSH2 0x11CA DUP2 DUP6 PUSH1 0x20 DUP7 ADD PUSH2 0x117B JUMP JUMPDEST PUSH2 0x11D3 DUP2 PUSH2 0xE0E JUMP JUMPDEST DUP5 ADD SWAP2 POP POP SWAP3 SWAP2 POP POP JUMP JUMPDEST PUSH1 0x0 PUSH1 0x20 DUP3 ADD SWAP1 POP DUP2 DUP2 SUB PUSH1 0x0 DUP4 ADD MSTORE PUSH2 0x11F8 DUP2 DUP5 PUSH2 0x11A5 JUMP JUMPDEST SWAP1 POP SWAP3 SWAP2 POP POP JUMP JUMPDEST PUSH32 0x4E487B7100000000000000000000000000000000000000000000000000000000 PUSH1 0x0 MSTORE PUSH1 0x51 PUSH1 0x4 MSTORE PUSH1 0x24 PUSH1 0x0 REVERT INVALID LOG2 PUSH5 0x6970667358 0x22 SLT KECCAK256 0xF7 CALLCODE PUSH31 0x131B3D8CB82B5272D0E62264215EAFDF30880D9ED46113935B12180D846473 PUSH16 0x6C634300081400330000000000000000 "},"methodIdentifiers":{"depositTo(address)":"b760faf9","deposits(address)":"fc7e286d","getUserOpHash((address,uint256,bytes,bytes,uint256,uint256,uint256,uint256,uint256,bytes,bytes))":"a6193531","handleOps((address,uint256,bytes,bytes,uint256,uint256,uint256,uint256,uint256,bytes,bytes)[])":"532d3ac9","validateUserOp((address,uint256,bytes,bytes,uint256,uint256,uint256,uint256,uint256,bytes,bytes))":"8393db0b"}}}}}